{
	"contracts/Solidity_basics_fund_me/FundMe.sol": {
		"FundMe": {
			"abi": [
				{
					"inputs": [],
					"stateMutability": "nonpayable",
					"type": "constructor"
				},
				{
					"stateMutability": "payable",
					"type": "fallback"
				},
				{
					"inputs": [],
					"name": "MINIMUM_AMOUNT",
					"outputs": [
						{
							"internalType": "uint256",
							"name": "",
							"type": "uint256"
						}
					],
					"stateMutability": "view",
					"type": "function"
				},
				{
					"inputs": [],
					"name": "fund",
					"outputs": [],
					"stateMutability": "payable",
					"type": "function"
				},
				{
					"inputs": [
						{
							"internalType": "uint256",
							"name": "",
							"type": "uint256"
						}
					],
					"name": "funders",
					"outputs": [
						{
							"internalType": "address",
							"name": "",
							"type": "address"
						}
					],
					"stateMutability": "view",
					"type": "function"
				},
				{
					"inputs": [
						{
							"internalType": "address",
							"name": "",
							"type": "address"
						}
					],
					"name": "fundersAddress",
					"outputs": [
						{
							"internalType": "uint256",
							"name": "",
							"type": "uint256"
						}
					],
					"stateMutability": "view",
					"type": "function"
				},
				{
					"inputs": [],
					"name": "i_owner",
					"outputs": [
						{
							"internalType": "address",
							"name": "",
							"type": "address"
						}
					],
					"stateMutability": "view",
					"type": "function"
				},
				{
					"inputs": [],
					"name": "withdraw",
					"outputs": [],
					"stateMutability": "nonpayable",
					"type": "function"
				},
				{
					"stateMutability": "payable",
					"type": "receive"
				}
			],
			"devdoc": {
				"kind": "dev",
				"methods": {},
				"version": 1
			},
			"evm": {
				"assembly": "    /* \"contracts/Solidity_basics_fund_me/FundMe.sol\":112:1574  contract FundMe {... */\n  mstore(0x40, 0xa0)\n    /* \"contracts/Solidity_basics_fund_me/FundMe.sol\":356:407  constructor() {... */\n  callvalue\n  dup1\n  iszero\n  tag_1\n  jumpi\n  revert(0x00, 0x00)\ntag_1:\n  pop\n    /* \"contracts/Solidity_basics_fund_me/FundMe.sol\":390:400  msg.sender */\n  caller\n    /* \"contracts/Solidity_basics_fund_me/FundMe.sol\":380:400  i_owner = msg.sender */\n  0xffffffffffffffffffffffffffffffffffffffff\n  and\n  0x80\n  dup2\n  0xffffffffffffffffffffffffffffffffffffffff\n  and\n  dup2\n  mstore\n  pop\n  pop\n    /* \"contracts/Solidity_basics_fund_me/FundMe.sol\":112:1574  contract FundMe {... */\n  mload(0x80)\n  codecopy(0x00, dataOffset(sub_0), dataSize(sub_0))\n  0x00\n  assignImmutable(\"0x646d998f946f968f0675fd4e3cb527e1222094ea0d9cc1fd615146a8fe29802e\")\n  return(0x00, dataSize(sub_0))\nstop\n\nsub_0: assembly {\n        /* \"contracts/Solidity_basics_fund_me/FundMe.sol\":112:1574  contract FundMe {... */\n      mstore(0x40, 0x80)\n      jumpi(tag_1, lt(calldatasize, 0x04))\n      shr(0xe0, calldataload(0x00))\n      dup1\n      0x257d9bb8\n      eq\n      tag_3\n      jumpi\n      dup1\n      0x3ccfd60b\n      eq\n      tag_4\n      jumpi\n      dup1\n      0xb60d4288\n      eq\n      tag_5\n      jumpi\n      dup1\n      0xd0d1f2cb\n      eq\n      tag_6\n      jumpi\n      dup1\n      0xdba6335f\n      eq\n      tag_7\n      jumpi\n      dup1\n      0xdc0d3dff\n      eq\n      tag_8\n      jumpi\n      jump(tag_2)\n    tag_1:\n      jumpi(tag_2, calldatasize)\n        /* \"contracts/Solidity_basics_fund_me/FundMe.sol\":1501:1507  fund() */\n      tag_11\n        /* \"contracts/Solidity_basics_fund_me/FundMe.sol\":1501:1505  fund */\n      tag_12\n        /* \"contracts/Solidity_basics_fund_me/FundMe.sol\":1501:1507  fund() */\n      jump\t// in\n    tag_11:\n        /* \"contracts/Solidity_basics_fund_me/FundMe.sol\":112:1574  contract FundMe {... */\n      stop\n    tag_2:\n        /* \"contracts/Solidity_basics_fund_me/FundMe.sol\":1559:1565  fund() */\n      tag_15\n        /* \"contracts/Solidity_basics_fund_me/FundMe.sol\":1559:1563  fund */\n      tag_12\n        /* \"contracts/Solidity_basics_fund_me/FundMe.sol\":1559:1565  fund() */\n      jump\t// in\n    tag_15:\n        /* \"contracts/Solidity_basics_fund_me/FundMe.sol\":112:1574  contract FundMe {... */\n      stop\n        /* \"contracts/Solidity_basics_fund_me/FundMe.sol\":177:222  uint256 public constant MINIMUM_AMOUNT = 5e18 */\n    tag_3:\n      callvalue\n      dup1\n      iszero\n      tag_16\n      jumpi\n      revert(0x00, 0x00)\n    tag_16:\n      pop\n      tag_17\n      tag_18\n      jump\t// in\n    tag_17:\n      mload(0x40)\n      tag_19\n      swap2\n      swap1\n      tag_20\n      jump\t// in\n    tag_19:\n      mload(0x40)\n      dup1\n      swap2\n      sub\n      swap1\n      return\n        /* \"contracts/Solidity_basics_fund_me/FundMe.sol\":704:1352  function withdraw() public onlyOwner {... */\n    tag_4:\n      callvalue\n      dup1\n      iszero\n      tag_21\n      jumpi\n      revert(0x00, 0x00)\n    tag_21:\n      pop\n      tag_22\n      tag_23\n      jump\t// in\n    tag_22:\n      stop\n        /* \"contracts/Solidity_basics_fund_me/FundMe.sol\":413:698  function fund() public payable {... */\n    tag_5:\n      tag_24\n      tag_12\n      jump\t// in\n    tag_24:\n      stop\n        /* \"contracts/Solidity_basics_fund_me/FundMe.sol\":260:310  mapping (address => uint256) public fundersAddress */\n    tag_6:\n      callvalue\n      dup1\n      iszero\n      tag_25\n      jumpi\n      revert(0x00, 0x00)\n    tag_25:\n      pop\n      tag_26\n      0x04\n      dup1\n      calldatasize\n      sub\n      dup2\n      add\n      swap1\n      tag_27\n      swap2\n      swap1\n      tag_28\n      jump\t// in\n    tag_27:\n      tag_29\n      jump\t// in\n    tag_26:\n      mload(0x40)\n      tag_30\n      swap2\n      swap1\n      tag_20\n      jump\t// in\n    tag_30:\n      mload(0x40)\n      dup1\n      swap2\n      sub\n      swap1\n      return\n        /* \"contracts/Solidity_basics_fund_me/FundMe.sol\":317:349  address public immutable i_owner */\n    tag_7:\n      callvalue\n      dup1\n      iszero\n      tag_31\n      jumpi\n      revert(0x00, 0x00)\n    tag_31:\n      pop\n      tag_32\n      tag_33\n      jump\t// in\n    tag_32:\n      mload(0x40)\n      tag_34\n      swap2\n      swap1\n      tag_35\n      jump\t// in\n    tag_34:\n      mload(0x40)\n      dup1\n      swap2\n      sub\n      swap1\n      return\n        /* \"contracts/Solidity_basics_fund_me/FundMe.sol\":230:254  address[] public funders */\n    tag_8:\n      callvalue\n      dup1\n      iszero\n      tag_36\n      jumpi\n      revert(0x00, 0x00)\n    tag_36:\n      pop\n      tag_37\n      0x04\n      dup1\n      calldatasize\n      sub\n      dup2\n      add\n      swap1\n      tag_38\n      swap2\n      swap1\n      tag_39\n      jump\t// in\n    tag_38:\n      tag_40\n      jump\t// in\n    tag_37:\n      mload(0x40)\n      tag_41\n      swap2\n      swap1\n      tag_35\n      jump\t// in\n    tag_41:\n      mload(0x40)\n      dup1\n      swap2\n      sub\n      swap1\n      return\n        /* \"contracts/Solidity_basics_fund_me/FundMe.sol\":413:698  function fund() public payable {... */\n    tag_12:\n        /* \"contracts/Solidity_basics_fund_me/FundMe.sol\":218:222  5e18 */\n      0x4563918244f40000\n        /* \"contracts/Solidity_basics_fund_me/FundMe.sol\":475:504  msg.value.getConversionRate() */\n      tag_43\n        /* \"contracts/Solidity_basics_fund_me/FundMe.sol\":475:484  msg.value */\n      callvalue\n        /* \"contracts/Solidity_basics_fund_me/FundMe.sol\":475:502  msg.value.getConversionRate */\n      tag_44\n        /* \"contracts/Solidity_basics_fund_me/FundMe.sol\":475:504  msg.value.getConversionRate() */\n      jump\t// in\n    tag_43:\n        /* \"contracts/Solidity_basics_fund_me/FundMe.sol\":475:522  msg.value.getConversionRate() >= MINIMUM_AMOUNT */\n      lt\n      iszero\n        /* \"contracts/Solidity_basics_fund_me/FundMe.sol\":454:572  require(... */\n      tag_45\n      jumpi\n      mload(0x40)\n      0x08c379a000000000000000000000000000000000000000000000000000000000\n      dup2\n      mstore\n      0x04\n      add\n      tag_46\n      swap1\n      tag_47\n      jump\t// in\n    tag_46:\n      mload(0x40)\n      dup1\n      swap2\n      sub\n      swap1\n      revert\n    tag_45:\n        /* \"contracts/Solidity_basics_fund_me/FundMe.sol\":583:596  address payer */\n      0x00\n        /* \"contracts/Solidity_basics_fund_me/FundMe.sol\":607:617  msg.sender */\n      caller\n        /* \"contracts/Solidity_basics_fund_me/FundMe.sol\":583:618  address payer = payable(msg.sender) */\n      swap1\n      pop\n        /* \"contracts/Solidity_basics_fund_me/FundMe.sol\":628:635  funders */\n      0x00\n        /* \"contracts/Solidity_basics_fund_me/FundMe.sol\":641:646  payer */\n      dup2\n        /* \"contracts/Solidity_basics_fund_me/FundMe.sol\":628:647  funders.push(payer) */\n      swap1\n      dup1\n      0x01\n      dup2\n      sload\n      add\n      dup1\n      dup3\n      sstore\n      dup1\n      swap2\n      pop\n      pop\n      0x01\n      swap1\n      sub\n      swap1\n      0x00\n      mstore\n      keccak256(0x00, 0x20)\n      add\n      0x00\n      swap1\n      swap2\n      swap1\n      swap2\n      swap1\n      swap2\n      0x0100\n      exp\n      dup2\n      sload\n      dup2\n      0xffffffffffffffffffffffffffffffffffffffff\n      mul\n      not\n      and\n      swap1\n      dup4\n      0xffffffffffffffffffffffffffffffffffffffff\n      and\n      mul\n      or\n      swap1\n      sstore\n      pop\n        /* \"contracts/Solidity_basics_fund_me/FundMe.sol\":682:691  msg.value */\n      callvalue\n        /* \"contracts/Solidity_basics_fund_me/FundMe.sol\":657:671  fundersAddress */\n      0x01\n        /* \"contracts/Solidity_basics_fund_me/FundMe.sol\":657:678  fundersAddress[payer] */\n      0x00\n        /* \"contracts/Solidity_basics_fund_me/FundMe.sol\":672:677  payer */\n      dup4\n        /* \"contracts/Solidity_basics_fund_me/FundMe.sol\":657:678  fundersAddress[payer] */\n      0xffffffffffffffffffffffffffffffffffffffff\n      and\n      0xffffffffffffffffffffffffffffffffffffffff\n      and\n      dup2\n      mstore\n      0x20\n      add\n      swap1\n      dup2\n      mstore\n      0x20\n      add\n      0x00\n      keccak256\n      0x00\n        /* \"contracts/Solidity_basics_fund_me/FundMe.sol\":657:691  fundersAddress[payer] += msg.value */\n      dup3\n      dup3\n      sload\n      tag_49\n      swap2\n      swap1\n      tag_50\n      jump\t// in\n    tag_49:\n      swap3\n      pop\n      pop\n      dup2\n      swap1\n      sstore\n      pop\n        /* \"contracts/Solidity_basics_fund_me/FundMe.sol\":444:698  {... */\n      pop\n        /* \"contracts/Solidity_basics_fund_me/FundMe.sol\":413:698  function fund() public payable {... */\n      jump\t// out\n        /* \"contracts/Solidity_basics_fund_me/FundMe.sol\":177:222  uint256 public constant MINIMUM_AMOUNT = 5e18 */\n    tag_18:\n        /* \"contracts/Solidity_basics_fund_me/FundMe.sol\":218:222  5e18 */\n      0x4563918244f40000\n        /* \"contracts/Solidity_basics_fund_me/FundMe.sol\":177:222  uint256 public constant MINIMUM_AMOUNT = 5e18 */\n      dup2\n      jump\t// out\n        /* \"contracts/Solidity_basics_fund_me/FundMe.sol\":704:1352  function withdraw() public onlyOwner {... */\n    tag_23:\n        /* \"contracts/Solidity_basics_fund_me/FundMe.sol\":1412:1419  i_owner */\n      immutable(\"0x646d998f946f968f0675fd4e3cb527e1222094ea0d9cc1fd615146a8fe29802e\")\n        /* \"contracts/Solidity_basics_fund_me/FundMe.sol\":1398:1419  msg.sender == i_owner */\n      0xffffffffffffffffffffffffffffffffffffffff\n      and\n        /* \"contracts/Solidity_basics_fund_me/FundMe.sol\":1398:1408  msg.sender */\n      caller\n        /* \"contracts/Solidity_basics_fund_me/FundMe.sol\":1398:1419  msg.sender == i_owner */\n      0xffffffffffffffffffffffffffffffffffffffff\n      and\n      eq\n        /* \"contracts/Solidity_basics_fund_me/FundMe.sol\":1390:1438  require(msg.sender == i_owner, \"Not authorized\") */\n      tag_52\n      jumpi\n      mload(0x40)\n      0x08c379a000000000000000000000000000000000000000000000000000000000\n      dup2\n      mstore\n      0x04\n      add\n      tag_53\n      swap1\n      tag_54\n      jump\t// in\n    tag_53:\n      mload(0x40)\n      dup1\n      swap2\n      sub\n      swap1\n      revert\n    tag_52:\n        /* \"contracts/Solidity_basics_fund_me/FundMe.sol\":756:775  uint256 funderIndex */\n      0x00\n        /* \"contracts/Solidity_basics_fund_me/FundMe.sol\":778:779  0 */\n      0x00\n        /* \"contracts/Solidity_basics_fund_me/FundMe.sol\":756:779  uint256 funderIndex = 0 */\n      swap1\n      pop\n        /* \"contracts/Solidity_basics_fund_me/FundMe.sol\":751:935  for (uint256 funderIndex = 0; funderIndex < funders.length; funderIndex++) ... */\n    tag_56:\n        /* \"contracts/Solidity_basics_fund_me/FundMe.sol\":795:802  funders */\n      0x00\n        /* \"contracts/Solidity_basics_fund_me/FundMe.sol\":795:809  funders.length */\n      dup1\n      sload\n      swap1\n      pop\n        /* \"contracts/Solidity_basics_fund_me/FundMe.sol\":781:792  funderIndex */\n      dup2\n        /* \"contracts/Solidity_basics_fund_me/FundMe.sol\":781:809  funderIndex < funders.length */\n      lt\n        /* \"contracts/Solidity_basics_fund_me/FundMe.sol\":751:935  for (uint256 funderIndex = 0; funderIndex < funders.length; funderIndex++) ... */\n      iszero\n      tag_57\n      jumpi\n        /* \"contracts/Solidity_basics_fund_me/FundMe.sol\":848:862  address funder */\n      0x00\n        /* \"contracts/Solidity_basics_fund_me/FundMe.sol\":865:872  funders */\n      0x00\n        /* \"contracts/Solidity_basics_fund_me/FundMe.sol\":873:884  funderIndex */\n      dup3\n        /* \"contracts/Solidity_basics_fund_me/FundMe.sol\":865:885  funders[funderIndex] */\n      dup2\n      sload\n      dup2\n      lt\n      tag_59\n      jumpi\n      tag_60\n      tag_61\n      jump\t// in\n    tag_60:\n    tag_59:\n      swap1\n      0x00\n      mstore\n      keccak256(0x00, 0x20)\n      add\n      0x00\n      swap1\n      sload\n      swap1\n      0x0100\n      exp\n      swap1\n      div\n      0xffffffffffffffffffffffffffffffffffffffff\n      and\n        /* \"contracts/Solidity_basics_fund_me/FundMe.sol\":848:885  address funder = funders[funderIndex] */\n      swap1\n      pop\n        /* \"contracts/Solidity_basics_fund_me/FundMe.sol\":923:924  0 */\n      0x00\n        /* \"contracts/Solidity_basics_fund_me/FundMe.sol\":898:912  fundersAddress */\n      0x01\n        /* \"contracts/Solidity_basics_fund_me/FundMe.sol\":898:920  fundersAddress[funder] */\n      0x00\n        /* \"contracts/Solidity_basics_fund_me/FundMe.sol\":913:919  funder */\n      dup4\n        /* \"contracts/Solidity_basics_fund_me/FundMe.sol\":898:920  fundersAddress[funder] */\n      0xffffffffffffffffffffffffffffffffffffffff\n      and\n      0xffffffffffffffffffffffffffffffffffffffff\n      and\n      dup2\n      mstore\n      0x20\n      add\n      swap1\n      dup2\n      mstore\n      0x20\n      add\n      0x00\n      keccak256\n        /* \"contracts/Solidity_basics_fund_me/FundMe.sol\":898:924  fundersAddress[funder] = 0 */\n      dup2\n      swap1\n      sstore\n      pop\n        /* \"contracts/Solidity_basics_fund_me/FundMe.sol\":835:935  {... */\n      pop\n        /* \"contracts/Solidity_basics_fund_me/FundMe.sol\":811:824  funderIndex++ */\n      dup1\n      dup1\n      0x01\n      add\n      swap2\n      pop\n      pop\n        /* \"contracts/Solidity_basics_fund_me/FundMe.sol\":751:935  for (uint256 funderIndex = 0; funderIndex < funders.length; funderIndex++) ... */\n      jump(tag_56)\n    tag_57:\n      pop\n        /* \"contracts/Solidity_basics_fund_me/FundMe.sol\":969:970  0 */\n      0x00\n        /* \"contracts/Solidity_basics_fund_me/FundMe.sol\":955:971  new address[](0) */\n      0xffffffffffffffff\n      dup2\n      gt\n      iszero\n      tag_63\n      jumpi\n      tag_64\n      tag_65\n      jump\t// in\n    tag_64:\n    tag_63:\n      mload(0x40)\n      swap1\n      dup1\n      dup3\n      mstore\n      dup1\n      0x20\n      mul\n      0x20\n      add\n      dup3\n      add\n      0x40\n      mstore\n      dup1\n      iszero\n      tag_66\n      jumpi\n      dup2\n      0x20\n      add\n      0x20\n      dup3\n      mul\n      dup1\n      calldatasize\n      dup4\n      calldatacopy\n      dup1\n      dup3\n      add\n      swap2\n      pop\n      pop\n      swap1\n      pop\n    tag_66:\n      pop\n        /* \"contracts/Solidity_basics_fund_me/FundMe.sol\":945:952  funders */\n      0x00\n        /* \"contracts/Solidity_basics_fund_me/FundMe.sol\":945:971  funders = new address[](0) */\n      swap1\n      dup1\n      mload\n      swap1\n      0x20\n      add\n      swap1\n      tag_67\n      swap3\n      swap2\n      swap1\n      tag_68\n      jump\t// in\n    tag_67:\n      pop\n        /* \"contracts/Solidity_basics_fund_me/FundMe.sol\":1229:1241  bool success */\n      0x00\n        /* \"contracts/Solidity_basics_fund_me/FundMe.sol\":1254:1264  msg.sender */\n      caller\n        /* \"contracts/Solidity_basics_fund_me/FundMe.sol\":1246:1270  payable(msg.sender).call */\n      0xffffffffffffffffffffffffffffffffffffffff\n      and\n        /* \"contracts/Solidity_basics_fund_me/FundMe.sol\":1278:1299  address(this).balance */\n      selfbalance\n        /* \"contracts/Solidity_basics_fund_me/FundMe.sol\":1246:1304  payable(msg.sender).call{value: address(this).balance}(\"\") */\n      mload(0x40)\n      tag_69\n      swap1\n      tag_70\n      jump\t// in\n    tag_69:\n      0x00\n      mload(0x40)\n      dup1\n      dup4\n      sub\n      dup2\n      dup6\n      dup8\n      gas\n      call\n      swap3\n      pop\n      pop\n      pop\n      returndatasize\n      dup1\n      0x00\n      dup2\n      eq\n      tag_73\n      jumpi\n      mload(0x40)\n      swap2\n      pop\n      and(add(returndatasize, 0x3f), not(0x1f))\n      dup3\n      add\n      0x40\n      mstore\n      returndatasize\n      dup3\n      mstore\n      returndatasize\n      0x00\n      0x20\n      dup5\n      add\n      returndatacopy\n      jump(tag_72)\n    tag_73:\n      0x60\n      swap2\n      pop\n    tag_72:\n      pop\n        /* \"contracts/Solidity_basics_fund_me/FundMe.sol\":1228:1304  (bool success,) = payable(msg.sender).call{value: address(this).balance}(\"\") */\n      pop\n      swap1\n      pop\n        /* \"contracts/Solidity_basics_fund_me/FundMe.sol\":1322:1329  success */\n      dup1\n        /* \"contracts/Solidity_basics_fund_me/FundMe.sol\":1314:1345  require(success, \"Call failed\") */\n      tag_74\n      jumpi\n      mload(0x40)\n      0x08c379a000000000000000000000000000000000000000000000000000000000\n      dup2\n      mstore\n      0x04\n      add\n      tag_75\n      swap1\n      tag_76\n      jump\t// in\n    tag_75:\n      mload(0x40)\n      dup1\n      swap2\n      sub\n      swap1\n      revert\n    tag_74:\n        /* \"contracts/Solidity_basics_fund_me/FundMe.sol\":741:1352  {... */\n      pop\n        /* \"contracts/Solidity_basics_fund_me/FundMe.sol\":704:1352  function withdraw() public onlyOwner {... */\n      jump\t// out\n        /* \"contracts/Solidity_basics_fund_me/FundMe.sol\":260:310  mapping (address => uint256) public fundersAddress */\n    tag_29:\n      mstore(0x20, 0x01)\n      dup1\n      0x00\n      mstore\n      keccak256(0x00, 0x40)\n      0x00\n      swap2\n      pop\n      swap1\n      pop\n      sload\n      dup2\n      jump\t// out\n        /* \"contracts/Solidity_basics_fund_me/FundMe.sol\":317:349  address public immutable i_owner */\n    tag_33:\n      immutable(\"0x646d998f946f968f0675fd4e3cb527e1222094ea0d9cc1fd615146a8fe29802e\")\n      dup2\n      jump\t// out\n        /* \"contracts/Solidity_basics_fund_me/FundMe.sol\":230:254  address[] public funders */\n    tag_40:\n      0x00\n      dup2\n      dup2\n      sload\n      dup2\n      lt\n      tag_77\n      jumpi\n      0x00\n      dup1\n      revert\n    tag_77:\n      swap1\n      0x00\n      mstore\n      keccak256(0x00, 0x20)\n      add\n      0x00\n      swap2\n      pop\n      sload\n      swap1\n      0x0100\n      exp\n      swap1\n      div\n      0xffffffffffffffffffffffffffffffffffffffff\n      and\n      dup2\n      jump\t// out\n        /* \"contracts/Solidity_basics_fund_me/PriceConverter.sol\":503:703  function getConversionRate(uint256 _ethAmount)... */\n    tag_44:\n        /* \"contracts/Solidity_basics_fund_me/PriceConverter.sol\":597:604  uint256 */\n      0x00\n        /* \"contracts/Solidity_basics_fund_me/PriceConverter.sol\":620:636  uint256 ethPrice */\n      0x00\n        /* \"contracts/Solidity_basics_fund_me/PriceConverter.sol\":639:649  getPrice() */\n      tag_80\n        /* \"contracts/Solidity_basics_fund_me/PriceConverter.sol\":639:647  getPrice */\n      tag_81\n        /* \"contracts/Solidity_basics_fund_me/PriceConverter.sol\":639:649  getPrice() */\n      jump\t// in\n    tag_80:\n        /* \"contracts/Solidity_basics_fund_me/PriceConverter.sol\":620:649  uint256 ethPrice = getPrice() */\n      swap1\n      pop\n        /* \"contracts/Solidity_basics_fund_me/PriceConverter.sol\":692:696  1e18 */\n      0x0de0b6b3a7640000\n        /* \"contracts/Solidity_basics_fund_me/PriceConverter.sol\":680:688  ethPrice */\n      dup2\n        /* \"contracts/Solidity_basics_fund_me/PriceConverter.sol\":667:677  _ethAmount */\n      dup5\n        /* \"contracts/Solidity_basics_fund_me/PriceConverter.sol\":667:688  _ethAmount * ethPrice */\n      tag_82\n      swap2\n      swap1\n      tag_83\n      jump\t// in\n    tag_82:\n        /* \"contracts/Solidity_basics_fund_me/PriceConverter.sol\":666:696  (_ethAmount * ethPrice) / 1e18 */\n      tag_84\n      swap2\n      swap1\n      tag_85\n      jump\t// in\n    tag_84:\n        /* \"contracts/Solidity_basics_fund_me/PriceConverter.sol\":659:696  return (_ethAmount * ethPrice) / 1e18 */\n      swap2\n      pop\n      pop\n        /* \"contracts/Solidity_basics_fund_me/PriceConverter.sol\":503:703  function getConversionRate(uint256 _ethAmount)... */\n      swap2\n      swap1\n      pop\n      jump\t// out\n        /* \"contracts/Solidity_basics_fund_me/PriceConverter.sol\":205:497  function getPrice() internal  view returns (uint256) {... */\n    tag_81:\n        /* \"contracts/Solidity_basics_fund_me/PriceConverter.sol\":249:256  uint256 */\n      0x00\n        /* \"contracts/Solidity_basics_fund_me/PriceConverter.sol\":268:299  AggregatorV3Interface priceFeed */\n      0x00\n        /* \"contracts/Solidity_basics_fund_me/PriceConverter.sol\":337:379  0x694AA1769357215DE4FAC081bf1f309aDC325306 */\n      0x694aa1769357215de4fac081bf1f309adc325306\n        /* \"contracts/Solidity_basics_fund_me/PriceConverter.sol\":268:389  AggregatorV3Interface priceFeed = AggregatorV3Interface(... */\n      swap1\n      pop\n        /* \"contracts/Solidity_basics_fund_me/PriceConverter.sol\":402:414  int256 price */\n      0x00\n        /* \"contracts/Solidity_basics_fund_me/PriceConverter.sol\":424:433  priceFeed */\n      dup2\n        /* \"contracts/Solidity_basics_fund_me/PriceConverter.sol\":424:449  priceFeed.latestRoundData */\n      0xffffffffffffffffffffffffffffffffffffffff\n      and\n      0xfeaf968c\n        /* \"contracts/Solidity_basics_fund_me/PriceConverter.sol\":424:451  priceFeed.latestRoundData() */\n      mload(0x40)\n      dup2\n      0xffffffff\n      and\n      0xe0\n      shl\n      dup2\n      mstore\n      0x04\n      add\n      0xa0\n      mload(0x40)\n      dup1\n      dup4\n      sub\n      dup2\n      dup7\n      gas\n      staticcall\n      iszero\n      dup1\n      iszero\n      tag_88\n      jumpi\n      returndatacopy(0x00, 0x00, returndatasize)\n      revert(0x00, returndatasize)\n    tag_88:\n      pop\n      pop\n      pop\n      pop\n      mload(0x40)\n      returndatasize\n      not(0x1f)\n      0x1f\n      dup3\n      add\n      and\n      dup3\n      add\n      dup1\n      0x40\n      mstore\n      pop\n      dup2\n      add\n      swap1\n      tag_89\n      swap2\n      swap1\n      tag_90\n      jump\t// in\n    tag_89:\n        /* \"contracts/Solidity_basics_fund_me/PriceConverter.sol\":399:451  (, int256 price, , , ) = priceFeed.latestRoundData() */\n      pop\n      pop\n      pop\n      swap2\n      pop\n      pop\n        /* \"contracts/Solidity_basics_fund_me/PriceConverter.sol\":485:489  1e10 */\n      0x02540be400\n        /* \"contracts/Solidity_basics_fund_me/PriceConverter.sol\":477:482  price */\n      dup2\n        /* \"contracts/Solidity_basics_fund_me/PriceConverter.sol\":477:489  price * 1e10 */\n      tag_91\n      swap2\n      swap1\n      tag_92\n      jump\t// in\n    tag_91:\n        /* \"contracts/Solidity_basics_fund_me/PriceConverter.sol\":462:490  return uint256(price * 1e10) */\n      swap3\n      pop\n      pop\n      pop\n        /* \"contracts/Solidity_basics_fund_me/PriceConverter.sol\":205:497  function getPrice() internal  view returns (uint256) {... */\n      swap1\n      jump\t// out\n    tag_68:\n      dup3\n      dup1\n      sload\n      dup3\n      dup3\n      sstore\n      swap1\n      0x00\n      mstore\n      keccak256(0x00, 0x20)\n      swap1\n      dup2\n      add\n      swap3\n      dup3\n      iszero\n      tag_93\n      jumpi\n      swap2\n      0x20\n      mul\n      dup3\n      add\n    tag_94:\n      dup3\n      dup2\n      gt\n      iszero\n      tag_95\n      jumpi\n      dup3\n      mload\n      dup3\n      exp(0x0100, 0x00)\n      dup2\n      sload\n      dup2\n      0xffffffffffffffffffffffffffffffffffffffff\n      mul\n      not\n      and\n      swap1\n      dup4\n      0xffffffffffffffffffffffffffffffffffffffff\n      and\n      mul\n      or\n      swap1\n      sstore\n      pop\n      swap2\n      0x20\n      add\n      swap2\n      swap1\n      0x01\n      add\n      swap1\n      jump(tag_94)\n    tag_95:\n    tag_93:\n      pop\n      swap1\n      pop\n      tag_96\n      swap2\n      swap1\n      tag_97\n      jump\t// in\n    tag_96:\n      pop\n      swap1\n      jump\t// out\n    tag_97:\n    tag_98:\n      dup1\n      dup3\n      gt\n      iszero\n      tag_99\n      jumpi\n      0x00\n      dup2\n      0x00\n      swap1\n      sstore\n      pop\n      0x01\n      add\n      jump(tag_98)\n    tag_99:\n      pop\n      swap1\n      jump\t// out\n        /* \"#utility.yul\":7:84   */\n    tag_100:\n        /* \"#utility.yul\":44:51   */\n      0x00\n        /* \"#utility.yul\":73:78   */\n      dup2\n        /* \"#utility.yul\":62:78   */\n      swap1\n      pop\n        /* \"#utility.yul\":7:84   */\n      swap2\n      swap1\n      pop\n      jump\t// out\n        /* \"#utility.yul\":90:208   */\n    tag_101:\n        /* \"#utility.yul\":177:201   */\n      tag_134\n        /* \"#utility.yul\":195:200   */\n      dup2\n        /* \"#utility.yul\":177:201   */\n      tag_100\n      jump\t// in\n    tag_134:\n        /* \"#utility.yul\":172:175   */\n      dup3\n        /* \"#utility.yul\":165:202   */\n      mstore\n        /* \"#utility.yul\":90:208   */\n      pop\n      pop\n      jump\t// out\n        /* \"#utility.yul\":214:436   */\n    tag_20:\n        /* \"#utility.yul\":307:311   */\n      0x00\n        /* \"#utility.yul\":345:347   */\n      0x20\n        /* \"#utility.yul\":334:343   */\n      dup3\n        /* \"#utility.yul\":330:348   */\n      add\n        /* \"#utility.yul\":322:348   */\n      swap1\n      pop\n        /* \"#utility.yul\":358:429   */\n      tag_136\n        /* \"#utility.yul\":426:427   */\n      0x00\n        /* \"#utility.yul\":415:424   */\n      dup4\n        /* \"#utility.yul\":411:428   */\n      add\n        /* \"#utility.yul\":402:408   */\n      dup5\n        /* \"#utility.yul\":358:429   */\n      tag_101\n      jump\t// in\n    tag_136:\n        /* \"#utility.yul\":214:436   */\n      swap3\n      swap2\n      pop\n      pop\n      jump\t// out\n        /* \"#utility.yul\":523:640   */\n    tag_103:\n        /* \"#utility.yul\":632:633   */\n      0x00\n        /* \"#utility.yul\":629:630   */\n      0x00\n        /* \"#utility.yul\":622:634   */\n      revert\n        /* \"#utility.yul\":769:895   */\n    tag_105:\n        /* \"#utility.yul\":806:813   */\n      0x00\n        /* \"#utility.yul\":846:888   */\n      0xffffffffffffffffffffffffffffffffffffffff\n        /* \"#utility.yul\":839:844   */\n      dup3\n        /* \"#utility.yul\":835:889   */\n      and\n        /* \"#utility.yul\":824:889   */\n      swap1\n      pop\n        /* \"#utility.yul\":769:895   */\n      swap2\n      swap1\n      pop\n      jump\t// out\n        /* \"#utility.yul\":901:997   */\n    tag_106:\n        /* \"#utility.yul\":938:945   */\n      0x00\n        /* \"#utility.yul\":967:991   */\n      tag_142\n        /* \"#utility.yul\":985:990   */\n      dup3\n        /* \"#utility.yul\":967:991   */\n      tag_105\n      jump\t// in\n    tag_142:\n        /* \"#utility.yul\":956:991   */\n      swap1\n      pop\n        /* \"#utility.yul\":901:997   */\n      swap2\n      swap1\n      pop\n      jump\t// out\n        /* \"#utility.yul\":1003:1125   */\n    tag_107:\n        /* \"#utility.yul\":1076:1100   */\n      tag_144\n        /* \"#utility.yul\":1094:1099   */\n      dup2\n        /* \"#utility.yul\":1076:1100   */\n      tag_106\n      jump\t// in\n    tag_144:\n        /* \"#utility.yul\":1069:1074   */\n      dup2\n        /* \"#utility.yul\":1066:1101   */\n      eq\n        /* \"#utility.yul\":1056:1119   */\n      tag_145\n      jumpi\n        /* \"#utility.yul\":1115:1116   */\n      0x00\n        /* \"#utility.yul\":1112:1113   */\n      0x00\n        /* \"#utility.yul\":1105:1117   */\n      revert\n        /* \"#utility.yul\":1056:1119   */\n    tag_145:\n        /* \"#utility.yul\":1003:1125   */\n      pop\n      jump\t// out\n        /* \"#utility.yul\":1131:1270   */\n    tag_108:\n        /* \"#utility.yul\":1177:1182   */\n      0x00\n        /* \"#utility.yul\":1215:1221   */\n      dup2\n        /* \"#utility.yul\":1202:1222   */\n      calldataload\n        /* \"#utility.yul\":1193:1222   */\n      swap1\n      pop\n        /* \"#utility.yul\":1231:1264   */\n      tag_147\n        /* \"#utility.yul\":1258:1263   */\n      dup2\n        /* \"#utility.yul\":1231:1264   */\n      tag_107\n      jump\t// in\n    tag_147:\n        /* \"#utility.yul\":1131:1270   */\n      swap3\n      swap2\n      pop\n      pop\n      jump\t// out\n        /* \"#utility.yul\":1276:1605   */\n    tag_28:\n        /* \"#utility.yul\":1335:1341   */\n      0x00\n        /* \"#utility.yul\":1384:1386   */\n      0x20\n        /* \"#utility.yul\":1372:1381   */\n      dup3\n        /* \"#utility.yul\":1363:1370   */\n      dup5\n        /* \"#utility.yul\":1359:1382   */\n      sub\n        /* \"#utility.yul\":1355:1387   */\n      slt\n        /* \"#utility.yul\":1352:1471   */\n      iszero\n      tag_149\n      jumpi\n        /* \"#utility.yul\":1390:1469   */\n      tag_150\n      tag_103\n      jump\t// in\n    tag_150:\n        /* \"#utility.yul\":1352:1471   */\n    tag_149:\n        /* \"#utility.yul\":1510:1511   */\n      0x00\n        /* \"#utility.yul\":1535:1588   */\n      tag_151\n        /* \"#utility.yul\":1580:1587   */\n      dup5\n        /* \"#utility.yul\":1571:1577   */\n      dup3\n        /* \"#utility.yul\":1560:1569   */\n      dup6\n        /* \"#utility.yul\":1556:1578   */\n      add\n        /* \"#utility.yul\":1535:1588   */\n      tag_108\n      jump\t// in\n    tag_151:\n        /* \"#utility.yul\":1525:1588   */\n      swap2\n      pop\n        /* \"#utility.yul\":1481:1598   */\n      pop\n        /* \"#utility.yul\":1276:1605   */\n      swap3\n      swap2\n      pop\n      pop\n      jump\t// out\n        /* \"#utility.yul\":1611:1729   */\n    tag_109:\n        /* \"#utility.yul\":1698:1722   */\n      tag_153\n        /* \"#utility.yul\":1716:1721   */\n      dup2\n        /* \"#utility.yul\":1698:1722   */\n      tag_106\n      jump\t// in\n    tag_153:\n        /* \"#utility.yul\":1693:1696   */\n      dup3\n        /* \"#utility.yul\":1686:1723   */\n      mstore\n        /* \"#utility.yul\":1611:1729   */\n      pop\n      pop\n      jump\t// out\n        /* \"#utility.yul\":1735:1957   */\n    tag_35:\n        /* \"#utility.yul\":1828:1832   */\n      0x00\n        /* \"#utility.yul\":1866:1868   */\n      0x20\n        /* \"#utility.yul\":1855:1864   */\n      dup3\n        /* \"#utility.yul\":1851:1869   */\n      add\n        /* \"#utility.yul\":1843:1869   */\n      swap1\n      pop\n        /* \"#utility.yul\":1879:1950   */\n      tag_155\n        /* \"#utility.yul\":1947:1948   */\n      0x00\n        /* \"#utility.yul\":1936:1945   */\n      dup4\n        /* \"#utility.yul\":1932:1949   */\n      add\n        /* \"#utility.yul\":1923:1929   */\n      dup5\n        /* \"#utility.yul\":1879:1950   */\n      tag_109\n      jump\t// in\n    tag_155:\n        /* \"#utility.yul\":1735:1957   */\n      swap3\n      swap2\n      pop\n      pop\n      jump\t// out\n        /* \"#utility.yul\":1963:2085   */\n    tag_110:\n        /* \"#utility.yul\":2036:2060   */\n      tag_157\n        /* \"#utility.yul\":2054:2059   */\n      dup2\n        /* \"#utility.yul\":2036:2060   */\n      tag_100\n      jump\t// in\n    tag_157:\n        /* \"#utility.yul\":2029:2034   */\n      dup2\n        /* \"#utility.yul\":2026:2061   */\n      eq\n        /* \"#utility.yul\":2016:2079   */\n      tag_158\n      jumpi\n        /* \"#utility.yul\":2075:2076   */\n      0x00\n        /* \"#utility.yul\":2072:2073   */\n      0x00\n        /* \"#utility.yul\":2065:2077   */\n      revert\n        /* \"#utility.yul\":2016:2079   */\n    tag_158:\n        /* \"#utility.yul\":1963:2085   */\n      pop\n      jump\t// out\n        /* \"#utility.yul\":2091:2230   */\n    tag_111:\n        /* \"#utility.yul\":2137:2142   */\n      0x00\n        /* \"#utility.yul\":2175:2181   */\n      dup2\n        /* \"#utility.yul\":2162:2182   */\n      calldataload\n        /* \"#utility.yul\":2153:2182   */\n      swap1\n      pop\n        /* \"#utility.yul\":2191:2224   */\n      tag_160\n        /* \"#utility.yul\":2218:2223   */\n      dup2\n        /* \"#utility.yul\":2191:2224   */\n      tag_110\n      jump\t// in\n    tag_160:\n        /* \"#utility.yul\":2091:2230   */\n      swap3\n      swap2\n      pop\n      pop\n      jump\t// out\n        /* \"#utility.yul\":2236:2565   */\n    tag_39:\n        /* \"#utility.yul\":2295:2301   */\n      0x00\n        /* \"#utility.yul\":2344:2346   */\n      0x20\n        /* \"#utility.yul\":2332:2341   */\n      dup3\n        /* \"#utility.yul\":2323:2330   */\n      dup5\n        /* \"#utility.yul\":2319:2342   */\n      sub\n        /* \"#utility.yul\":2315:2347   */\n      slt\n        /* \"#utility.yul\":2312:2431   */\n      iszero\n      tag_162\n      jumpi\n        /* \"#utility.yul\":2350:2429   */\n      tag_163\n      tag_103\n      jump\t// in\n    tag_163:\n        /* \"#utility.yul\":2312:2431   */\n    tag_162:\n        /* \"#utility.yul\":2470:2471   */\n      0x00\n        /* \"#utility.yul\":2495:2548   */\n      tag_164\n        /* \"#utility.yul\":2540:2547   */\n      dup5\n        /* \"#utility.yul\":2531:2537   */\n      dup3\n        /* \"#utility.yul\":2520:2529   */\n      dup6\n        /* \"#utility.yul\":2516:2538   */\n      add\n        /* \"#utility.yul\":2495:2548   */\n      tag_111\n      jump\t// in\n    tag_164:\n        /* \"#utility.yul\":2485:2548   */\n      swap2\n      pop\n        /* \"#utility.yul\":2441:2558   */\n      pop\n        /* \"#utility.yul\":2236:2565   */\n      swap3\n      swap2\n      pop\n      pop\n      jump\t// out\n        /* \"#utility.yul\":2571:2740   */\n    tag_112:\n        /* \"#utility.yul\":2655:2666   */\n      0x00\n        /* \"#utility.yul\":2689:2695   */\n      dup3\n        /* \"#utility.yul\":2684:2687   */\n      dup3\n        /* \"#utility.yul\":2677:2696   */\n      mstore\n        /* \"#utility.yul\":2729:2733   */\n      0x20\n        /* \"#utility.yul\":2724:2727   */\n      dup3\n        /* \"#utility.yul\":2720:2734   */\n      add\n        /* \"#utility.yul\":2705:2734   */\n      swap1\n      pop\n        /* \"#utility.yul\":2571:2740   */\n      swap3\n      swap2\n      pop\n      pop\n      jump\t// out\n        /* \"#utility.yul\":2746:2920   */\n    tag_113:\n        /* \"#utility.yul\":2886:2912   */\n      0x4d7573742073656e64206174206c656173742031204554480000000000000000\n        /* \"#utility.yul\":2882:2883   */\n      0x00\n        /* \"#utility.yul\":2874:2880   */\n      dup3\n        /* \"#utility.yul\":2870:2884   */\n      add\n        /* \"#utility.yul\":2863:2913   */\n      mstore\n        /* \"#utility.yul\":2746:2920   */\n      pop\n      jump\t// out\n        /* \"#utility.yul\":2926:3292   */\n    tag_114:\n        /* \"#utility.yul\":3068:3071   */\n      0x00\n        /* \"#utility.yul\":3089:3156   */\n      tag_168\n        /* \"#utility.yul\":3153:3155   */\n      0x18\n        /* \"#utility.yul\":3148:3151   */\n      dup4\n        /* \"#utility.yul\":3089:3156   */\n      tag_112\n      jump\t// in\n    tag_168:\n        /* \"#utility.yul\":3082:3156   */\n      swap2\n      pop\n        /* \"#utility.yul\":3165:3258   */\n      tag_169\n        /* \"#utility.yul\":3254:3257   */\n      dup3\n        /* \"#utility.yul\":3165:3258   */\n      tag_113\n      jump\t// in\n    tag_169:\n        /* \"#utility.yul\":3283:3285   */\n      0x20\n        /* \"#utility.yul\":3278:3281   */\n      dup3\n        /* \"#utility.yul\":3274:3286   */\n      add\n        /* \"#utility.yul\":3267:3286   */\n      swap1\n      pop\n        /* \"#utility.yul\":2926:3292   */\n      swap2\n      swap1\n      pop\n      jump\t// out\n        /* \"#utility.yul\":3298:3717   */\n    tag_47:\n        /* \"#utility.yul\":3464:3468   */\n      0x00\n        /* \"#utility.yul\":3502:3504   */\n      0x20\n        /* \"#utility.yul\":3491:3500   */\n      dup3\n        /* \"#utility.yul\":3487:3505   */\n      add\n        /* \"#utility.yul\":3479:3505   */\n      swap1\n      pop\n        /* \"#utility.yul\":3551:3560   */\n      dup2\n        /* \"#utility.yul\":3545:3549   */\n      dup2\n        /* \"#utility.yul\":3541:3561   */\n      sub\n        /* \"#utility.yul\":3537:3538   */\n      0x00\n        /* \"#utility.yul\":3526:3535   */\n      dup4\n        /* \"#utility.yul\":3522:3539   */\n      add\n        /* \"#utility.yul\":3515:3562   */\n      mstore\n        /* \"#utility.yul\":3579:3710   */\n      tag_171\n        /* \"#utility.yul\":3705:3709   */\n      dup2\n        /* \"#utility.yul\":3579:3710   */\n      tag_114\n      jump\t// in\n    tag_171:\n        /* \"#utility.yul\":3571:3710   */\n      swap1\n      pop\n        /* \"#utility.yul\":3298:3717   */\n      swap2\n      swap1\n      pop\n      jump\t// out\n        /* \"#utility.yul\":3723:3903   */\n    tag_115:\n        /* \"#utility.yul\":3771:3848   */\n      0x4e487b7100000000000000000000000000000000000000000000000000000000\n        /* \"#utility.yul\":3768:3769   */\n      0x00\n        /* \"#utility.yul\":3761:3849   */\n      mstore\n        /* \"#utility.yul\":3868:3872   */\n      0x11\n        /* \"#utility.yul\":3865:3866   */\n      0x04\n        /* \"#utility.yul\":3858:3873   */\n      mstore\n        /* \"#utility.yul\":3892:3896   */\n      0x24\n        /* \"#utility.yul\":3889:3890   */\n      0x00\n        /* \"#utility.yul\":3882:3897   */\n      revert\n        /* \"#utility.yul\":3909:4100   */\n    tag_50:\n        /* \"#utility.yul\":3949:3952   */\n      0x00\n        /* \"#utility.yul\":3968:3988   */\n      tag_174\n        /* \"#utility.yul\":3986:3987   */\n      dup3\n        /* \"#utility.yul\":3968:3988   */\n      tag_100\n      jump\t// in\n    tag_174:\n        /* \"#utility.yul\":3963:3988   */\n      swap2\n      pop\n        /* \"#utility.yul\":4002:4022   */\n      tag_175\n        /* \"#utility.yul\":4020:4021   */\n      dup4\n        /* \"#utility.yul\":4002:4022   */\n      tag_100\n      jump\t// in\n    tag_175:\n        /* \"#utility.yul\":3997:4022   */\n      swap3\n      pop\n        /* \"#utility.yul\":4045:4046   */\n      dup3\n        /* \"#utility.yul\":4042:4043   */\n      dup3\n        /* \"#utility.yul\":4038:4047   */\n      add\n        /* \"#utility.yul\":4031:4047   */\n      swap1\n      pop\n        /* \"#utility.yul\":4066:4069   */\n      dup1\n        /* \"#utility.yul\":4063:4064   */\n      dup3\n        /* \"#utility.yul\":4060:4070   */\n      gt\n        /* \"#utility.yul\":4057:4093   */\n      iszero\n      tag_176\n      jumpi\n        /* \"#utility.yul\":4073:4091   */\n      tag_177\n      tag_115\n      jump\t// in\n    tag_177:\n        /* \"#utility.yul\":4057:4093   */\n    tag_176:\n        /* \"#utility.yul\":3909:4100   */\n      swap3\n      swap2\n      pop\n      pop\n      jump\t// out\n        /* \"#utility.yul\":4106:4270   */\n    tag_116:\n        /* \"#utility.yul\":4246:4262   */\n      0x4e6f7420617574686f72697a6564000000000000000000000000000000000000\n        /* \"#utility.yul\":4242:4243   */\n      0x00\n        /* \"#utility.yul\":4234:4240   */\n      dup3\n        /* \"#utility.yul\":4230:4244   */\n      add\n        /* \"#utility.yul\":4223:4263   */\n      mstore\n        /* \"#utility.yul\":4106:4270   */\n      pop\n      jump\t// out\n        /* \"#utility.yul\":4276:4642   */\n    tag_117:\n        /* \"#utility.yul\":4418:4421   */\n      0x00\n        /* \"#utility.yul\":4439:4506   */\n      tag_180\n        /* \"#utility.yul\":4503:4505   */\n      0x0e\n        /* \"#utility.yul\":4498:4501   */\n      dup4\n        /* \"#utility.yul\":4439:4506   */\n      tag_112\n      jump\t// in\n    tag_180:\n        /* \"#utility.yul\":4432:4506   */\n      swap2\n      pop\n        /* \"#utility.yul\":4515:4608   */\n      tag_181\n        /* \"#utility.yul\":4604:4607   */\n      dup3\n        /* \"#utility.yul\":4515:4608   */\n      tag_116\n      jump\t// in\n    tag_181:\n        /* \"#utility.yul\":4633:4635   */\n      0x20\n        /* \"#utility.yul\":4628:4631   */\n      dup3\n        /* \"#utility.yul\":4624:4636   */\n      add\n        /* \"#utility.yul\":4617:4636   */\n      swap1\n      pop\n        /* \"#utility.yul\":4276:4642   */\n      swap2\n      swap1\n      pop\n      jump\t// out\n        /* \"#utility.yul\":4648:5067   */\n    tag_54:\n        /* \"#utility.yul\":4814:4818   */\n      0x00\n        /* \"#utility.yul\":4852:4854   */\n      0x20\n        /* \"#utility.yul\":4841:4850   */\n      dup3\n        /* \"#utility.yul\":4837:4855   */\n      add\n        /* \"#utility.yul\":4829:4855   */\n      swap1\n      pop\n        /* \"#utility.yul\":4901:4910   */\n      dup2\n        /* \"#utility.yul\":4895:4899   */\n      dup2\n        /* \"#utility.yul\":4891:4911   */\n      sub\n        /* \"#utility.yul\":4887:4888   */\n      0x00\n        /* \"#utility.yul\":4876:4885   */\n      dup4\n        /* \"#utility.yul\":4872:4889   */\n      add\n        /* \"#utility.yul\":4865:4912   */\n      mstore\n        /* \"#utility.yul\":4929:5060   */\n      tag_183\n        /* \"#utility.yul\":5055:5059   */\n      dup2\n        /* \"#utility.yul\":4929:5060   */\n      tag_117\n      jump\t// in\n    tag_183:\n        /* \"#utility.yul\":4921:5060   */\n      swap1\n      pop\n        /* \"#utility.yul\":4648:5067   */\n      swap2\n      swap1\n      pop\n      jump\t// out\n        /* \"#utility.yul\":5073:5253   */\n    tag_61:\n        /* \"#utility.yul\":5121:5198   */\n      0x4e487b7100000000000000000000000000000000000000000000000000000000\n        /* \"#utility.yul\":5118:5119   */\n      0x00\n        /* \"#utility.yul\":5111:5199   */\n      mstore\n        /* \"#utility.yul\":5218:5222   */\n      0x32\n        /* \"#utility.yul\":5215:5216   */\n      0x04\n        /* \"#utility.yul\":5208:5223   */\n      mstore\n        /* \"#utility.yul\":5242:5246   */\n      0x24\n        /* \"#utility.yul\":5239:5240   */\n      0x00\n        /* \"#utility.yul\":5232:5247   */\n      revert\n        /* \"#utility.yul\":5259:5439   */\n    tag_65:\n        /* \"#utility.yul\":5307:5384   */\n      0x4e487b7100000000000000000000000000000000000000000000000000000000\n        /* \"#utility.yul\":5304:5305   */\n      0x00\n        /* \"#utility.yul\":5297:5385   */\n      mstore\n        /* \"#utility.yul\":5404:5408   */\n      0x41\n        /* \"#utility.yul\":5401:5402   */\n      0x04\n        /* \"#utility.yul\":5394:5409   */\n      mstore\n        /* \"#utility.yul\":5428:5432   */\n      0x24\n        /* \"#utility.yul\":5425:5426   */\n      0x00\n        /* \"#utility.yul\":5418:5433   */\n      revert\n        /* \"#utility.yul\":5445:5592   */\n    tag_118:\n        /* \"#utility.yul\":5546:5557   */\n      0x00\n        /* \"#utility.yul\":5583:5586   */\n      dup2\n        /* \"#utility.yul\":5568:5586   */\n      swap1\n      pop\n        /* \"#utility.yul\":5445:5592   */\n      swap3\n      swap2\n      pop\n      pop\n      jump\t// out\n        /* \"#utility.yul\":5598:5712   */\n    tag_119:\n      pop\n      jump\t// out\n        /* \"#utility.yul\":5718:6116   */\n    tag_120:\n        /* \"#utility.yul\":5877:5880   */\n      0x00\n        /* \"#utility.yul\":5898:5981   */\n      tag_189\n        /* \"#utility.yul\":5979:5980   */\n      0x00\n        /* \"#utility.yul\":5974:5977   */\n      dup4\n        /* \"#utility.yul\":5898:5981   */\n      tag_118\n      jump\t// in\n    tag_189:\n        /* \"#utility.yul\":5891:5981   */\n      swap2\n      pop\n        /* \"#utility.yul\":5990:6083   */\n      tag_190\n        /* \"#utility.yul\":6079:6082   */\n      dup3\n        /* \"#utility.yul\":5990:6083   */\n      tag_119\n      jump\t// in\n    tag_190:\n        /* \"#utility.yul\":6108:6109   */\n      0x00\n        /* \"#utility.yul\":6103:6106   */\n      dup3\n        /* \"#utility.yul\":6099:6110   */\n      add\n        /* \"#utility.yul\":6092:6110   */\n      swap1\n      pop\n        /* \"#utility.yul\":5718:6116   */\n      swap2\n      swap1\n      pop\n      jump\t// out\n        /* \"#utility.yul\":6122:6501   */\n    tag_70:\n        /* \"#utility.yul\":6306:6309   */\n      0x00\n        /* \"#utility.yul\":6328:6475   */\n      tag_192\n        /* \"#utility.yul\":6471:6474   */\n      dup3\n        /* \"#utility.yul\":6328:6475   */\n      tag_120\n      jump\t// in\n    tag_192:\n        /* \"#utility.yul\":6321:6475   */\n      swap2\n      pop\n        /* \"#utility.yul\":6492:6495   */\n      dup2\n        /* \"#utility.yul\":6485:6495   */\n      swap1\n      pop\n        /* \"#utility.yul\":6122:6501   */\n      swap2\n      swap1\n      pop\n      jump\t// out\n        /* \"#utility.yul\":6507:6668   */\n    tag_121:\n        /* \"#utility.yul\":6647:6660   */\n      0x43616c6c206661696c6564000000000000000000000000000000000000000000\n        /* \"#utility.yul\":6643:6644   */\n      0x00\n        /* \"#utility.yul\":6635:6641   */\n      dup3\n        /* \"#utility.yul\":6631:6645   */\n      add\n        /* \"#utility.yul\":6624:6661   */\n      mstore\n        /* \"#utility.yul\":6507:6668   */\n      pop\n      jump\t// out\n        /* \"#utility.yul\":6674:7040   */\n    tag_122:\n        /* \"#utility.yul\":6816:6819   */\n      0x00\n        /* \"#utility.yul\":6837:6904   */\n      tag_195\n        /* \"#utility.yul\":6901:6903   */\n      0x0b\n        /* \"#utility.yul\":6896:6899   */\n      dup4\n        /* \"#utility.yul\":6837:6904   */\n      tag_112\n      jump\t// in\n    tag_195:\n        /* \"#utility.yul\":6830:6904   */\n      swap2\n      pop\n        /* \"#utility.yul\":6913:7006   */\n      tag_196\n        /* \"#utility.yul\":7002:7005   */\n      dup3\n        /* \"#utility.yul\":6913:7006   */\n      tag_121\n      jump\t// in\n    tag_196:\n        /* \"#utility.yul\":7031:7033   */\n      0x20\n        /* \"#utility.yul\":7026:7029   */\n      dup3\n        /* \"#utility.yul\":7022:7034   */\n      add\n        /* \"#utility.yul\":7015:7034   */\n      swap1\n      pop\n        /* \"#utility.yul\":6674:7040   */\n      swap2\n      swap1\n      pop\n      jump\t// out\n        /* \"#utility.yul\":7046:7465   */\n    tag_76:\n        /* \"#utility.yul\":7212:7216   */\n      0x00\n        /* \"#utility.yul\":7250:7252   */\n      0x20\n        /* \"#utility.yul\":7239:7248   */\n      dup3\n        /* \"#utility.yul\":7235:7253   */\n      add\n        /* \"#utility.yul\":7227:7253   */\n      swap1\n      pop\n        /* \"#utility.yul\":7299:7308   */\n      dup2\n        /* \"#utility.yul\":7293:7297   */\n      dup2\n        /* \"#utility.yul\":7289:7309   */\n      sub\n        /* \"#utility.yul\":7285:7286   */\n      0x00\n        /* \"#utility.yul\":7274:7283   */\n      dup4\n        /* \"#utility.yul\":7270:7287   */\n      add\n        /* \"#utility.yul\":7263:7310   */\n      mstore\n        /* \"#utility.yul\":7327:7458   */\n      tag_198\n        /* \"#utility.yul\":7453:7457   */\n      dup2\n        /* \"#utility.yul\":7327:7458   */\n      tag_122\n      jump\t// in\n    tag_198:\n        /* \"#utility.yul\":7319:7458   */\n      swap1\n      pop\n        /* \"#utility.yul\":7046:7465   */\n      swap2\n      swap1\n      pop\n      jump\t// out\n        /* \"#utility.yul\":7471:7881   */\n    tag_83:\n        /* \"#utility.yul\":7511:7518   */\n      0x00\n        /* \"#utility.yul\":7534:7554   */\n      tag_200\n        /* \"#utility.yul\":7552:7553   */\n      dup3\n        /* \"#utility.yul\":7534:7554   */\n      tag_100\n      jump\t// in\n    tag_200:\n        /* \"#utility.yul\":7529:7554   */\n      swap2\n      pop\n        /* \"#utility.yul\":7568:7588   */\n      tag_201\n        /* \"#utility.yul\":7586:7587   */\n      dup4\n        /* \"#utility.yul\":7568:7588   */\n      tag_100\n      jump\t// in\n    tag_201:\n        /* \"#utility.yul\":7563:7588   */\n      swap3\n      pop\n        /* \"#utility.yul\":7623:7624   */\n      dup3\n        /* \"#utility.yul\":7620:7621   */\n      dup3\n        /* \"#utility.yul\":7616:7625   */\n      mul\n        /* \"#utility.yul\":7645:7675   */\n      tag_202\n        /* \"#utility.yul\":7663:7674   */\n      dup2\n        /* \"#utility.yul\":7645:7675   */\n      tag_100\n      jump\t// in\n    tag_202:\n        /* \"#utility.yul\":7634:7675   */\n      swap2\n      pop\n        /* \"#utility.yul\":7824:7825   */\n      dup3\n        /* \"#utility.yul\":7815:7822   */\n      dup3\n        /* \"#utility.yul\":7811:7826   */\n      div\n        /* \"#utility.yul\":7808:7809   */\n      dup5\n        /* \"#utility.yul\":7805:7827   */\n      eq\n        /* \"#utility.yul\":7785:7786   */\n      dup4\n        /* \"#utility.yul\":7778:7787   */\n      iszero\n        /* \"#utility.yul\":7758:7841   */\n      or\n        /* \"#utility.yul\":7735:7874   */\n      tag_203\n      jumpi\n        /* \"#utility.yul\":7854:7872   */\n      tag_204\n      tag_115\n      jump\t// in\n    tag_204:\n        /* \"#utility.yul\":7735:7874   */\n    tag_203:\n        /* \"#utility.yul\":7519:7881   */\n      pop\n        /* \"#utility.yul\":7471:7881   */\n      swap3\n      swap2\n      pop\n      pop\n      jump\t// out\n        /* \"#utility.yul\":7887:8067   */\n    tag_123:\n        /* \"#utility.yul\":7935:8012   */\n      0x4e487b7100000000000000000000000000000000000000000000000000000000\n        /* \"#utility.yul\":7932:7933   */\n      0x00\n        /* \"#utility.yul\":7925:8013   */\n      mstore\n        /* \"#utility.yul\":8032:8036   */\n      0x12\n        /* \"#utility.yul\":8029:8030   */\n      0x04\n        /* \"#utility.yul\":8022:8037   */\n      mstore\n        /* \"#utility.yul\":8056:8060   */\n      0x24\n        /* \"#utility.yul\":8053:8054   */\n      0x00\n        /* \"#utility.yul\":8046:8061   */\n      revert\n        /* \"#utility.yul\":8073:8258   */\n    tag_85:\n        /* \"#utility.yul\":8113:8114   */\n      0x00\n        /* \"#utility.yul\":8130:8150   */\n      tag_207\n        /* \"#utility.yul\":8148:8149   */\n      dup3\n        /* \"#utility.yul\":8130:8150   */\n      tag_100\n      jump\t// in\n    tag_207:\n        /* \"#utility.yul\":8125:8150   */\n      swap2\n      pop\n        /* \"#utility.yul\":8164:8184   */\n      tag_208\n        /* \"#utility.yul\":8182:8183   */\n      dup4\n        /* \"#utility.yul\":8164:8184   */\n      tag_100\n      jump\t// in\n    tag_208:\n        /* \"#utility.yul\":8159:8184   */\n      swap3\n      pop\n        /* \"#utility.yul\":8203:8204   */\n      dup3\n        /* \"#utility.yul\":8193:8228   */\n      tag_209\n      jumpi\n        /* \"#utility.yul\":8208:8226   */\n      tag_210\n      tag_123\n      jump\t// in\n    tag_210:\n        /* \"#utility.yul\":8193:8228   */\n    tag_209:\n        /* \"#utility.yul\":8250:8251   */\n      dup3\n        /* \"#utility.yul\":8247:8248   */\n      dup3\n        /* \"#utility.yul\":8243:8252   */\n      div\n        /* \"#utility.yul\":8238:8252   */\n      swap1\n      pop\n        /* \"#utility.yul\":8073:8258   */\n      swap3\n      swap2\n      pop\n      pop\n      jump\t// out\n        /* \"#utility.yul\":8264:8369   */\n    tag_124:\n        /* \"#utility.yul\":8300:8307   */\n      0x00\n        /* \"#utility.yul\":8340:8362   */\n      0xffffffffffffffffffff\n        /* \"#utility.yul\":8333:8338   */\n      dup3\n        /* \"#utility.yul\":8329:8363   */\n      and\n        /* \"#utility.yul\":8318:8363   */\n      swap1\n      pop\n        /* \"#utility.yul\":8264:8369   */\n      swap2\n      swap1\n      pop\n      jump\t// out\n        /* \"#utility.yul\":8375:8495   */\n    tag_125:\n        /* \"#utility.yul\":8447:8470   */\n      tag_213\n        /* \"#utility.yul\":8464:8469   */\n      dup2\n        /* \"#utility.yul\":8447:8470   */\n      tag_124\n      jump\t// in\n    tag_213:\n        /* \"#utility.yul\":8440:8445   */\n      dup2\n        /* \"#utility.yul\":8437:8471   */\n      eq\n        /* \"#utility.yul\":8427:8489   */\n      tag_214\n      jumpi\n        /* \"#utility.yul\":8485:8486   */\n      0x00\n        /* \"#utility.yul\":8482:8483   */\n      0x00\n        /* \"#utility.yul\":8475:8487   */\n      revert\n        /* \"#utility.yul\":8427:8489   */\n    tag_214:\n        /* \"#utility.yul\":8375:8495   */\n      pop\n      jump\t// out\n        /* \"#utility.yul\":8501:8642   */\n    tag_126:\n        /* \"#utility.yul\":8557:8562   */\n      0x00\n        /* \"#utility.yul\":8588:8594   */\n      dup2\n        /* \"#utility.yul\":8582:8595   */\n      mload\n        /* \"#utility.yul\":8573:8595   */\n      swap1\n      pop\n        /* \"#utility.yul\":8604:8636   */\n      tag_216\n        /* \"#utility.yul\":8630:8635   */\n      dup2\n        /* \"#utility.yul\":8604:8636   */\n      tag_125\n      jump\t// in\n    tag_216:\n        /* \"#utility.yul\":8501:8642   */\n      swap3\n      swap2\n      pop\n      pop\n      jump\t// out\n        /* \"#utility.yul\":8648:8724   */\n    tag_127:\n        /* \"#utility.yul\":8684:8691   */\n      0x00\n        /* \"#utility.yul\":8713:8718   */\n      dup2\n        /* \"#utility.yul\":8702:8718   */\n      swap1\n      pop\n        /* \"#utility.yul\":8648:8724   */\n      swap2\n      swap1\n      pop\n      jump\t// out\n        /* \"#utility.yul\":8730:8850   */\n    tag_128:\n        /* \"#utility.yul\":8802:8825   */\n      tag_219\n        /* \"#utility.yul\":8819:8824   */\n      dup2\n        /* \"#utility.yul\":8802:8825   */\n      tag_127\n      jump\t// in\n    tag_219:\n        /* \"#utility.yul\":8795:8800   */\n      dup2\n        /* \"#utility.yul\":8792:8826   */\n      eq\n        /* \"#utility.yul\":8782:8844   */\n      tag_220\n      jumpi\n        /* \"#utility.yul\":8840:8841   */\n      0x00\n        /* \"#utility.yul\":8837:8838   */\n      0x00\n        /* \"#utility.yul\":8830:8842   */\n      revert\n        /* \"#utility.yul\":8782:8844   */\n    tag_220:\n        /* \"#utility.yul\":8730:8850   */\n      pop\n      jump\t// out\n        /* \"#utility.yul\":8856:8997   */\n    tag_129:\n        /* \"#utility.yul\":8912:8917   */\n      0x00\n        /* \"#utility.yul\":8943:8949   */\n      dup2\n        /* \"#utility.yul\":8937:8950   */\n      mload\n        /* \"#utility.yul\":8928:8950   */\n      swap1\n      pop\n        /* \"#utility.yul\":8959:8991   */\n      tag_222\n        /* \"#utility.yul\":8985:8990   */\n      dup2\n        /* \"#utility.yul\":8959:8991   */\n      tag_128\n      jump\t// in\n    tag_222:\n        /* \"#utility.yul\":8856:8997   */\n      swap3\n      swap2\n      pop\n      pop\n      jump\t// out\n        /* \"#utility.yul\":9003:9146   */\n    tag_130:\n        /* \"#utility.yul\":9060:9065   */\n      0x00\n        /* \"#utility.yul\":9091:9097   */\n      dup2\n        /* \"#utility.yul\":9085:9098   */\n      mload\n        /* \"#utility.yul\":9076:9098   */\n      swap1\n      pop\n        /* \"#utility.yul\":9107:9140   */\n      tag_224\n        /* \"#utility.yul\":9134:9139   */\n      dup2\n        /* \"#utility.yul\":9107:9140   */\n      tag_110\n      jump\t// in\n    tag_224:\n        /* \"#utility.yul\":9003:9146   */\n      swap3\n      swap2\n      pop\n      pop\n      jump\t// out\n        /* \"#utility.yul\":9152:10123   */\n    tag_90:\n        /* \"#utility.yul\":9255:9261   */\n      0x00\n        /* \"#utility.yul\":9263:9269   */\n      0x00\n        /* \"#utility.yul\":9271:9277   */\n      0x00\n        /* \"#utility.yul\":9279:9285   */\n      0x00\n        /* \"#utility.yul\":9287:9293   */\n      0x00\n        /* \"#utility.yul\":9336:9339   */\n      0xa0\n        /* \"#utility.yul\":9324:9333   */\n      dup7\n        /* \"#utility.yul\":9315:9322   */\n      dup9\n        /* \"#utility.yul\":9311:9334   */\n      sub\n        /* \"#utility.yul\":9307:9340   */\n      slt\n        /* \"#utility.yul\":9304:9424   */\n      iszero\n      tag_226\n      jumpi\n        /* \"#utility.yul\":9343:9422   */\n      tag_227\n      tag_103\n      jump\t// in\n    tag_227:\n        /* \"#utility.yul\":9304:9424   */\n    tag_226:\n        /* \"#utility.yul\":9463:9464   */\n      0x00\n        /* \"#utility.yul\":9488:9551   */\n      tag_228\n        /* \"#utility.yul\":9543:9550   */\n      dup9\n        /* \"#utility.yul\":9534:9540   */\n      dup3\n        /* \"#utility.yul\":9523:9532   */\n      dup10\n        /* \"#utility.yul\":9519:9541   */\n      add\n        /* \"#utility.yul\":9488:9551   */\n      tag_126\n      jump\t// in\n    tag_228:\n        /* \"#utility.yul\":9478:9551   */\n      swap6\n      pop\n        /* \"#utility.yul\":9434:9561   */\n      pop\n        /* \"#utility.yul\":9600:9602   */\n      0x20\n        /* \"#utility.yul\":9626:9689   */\n      tag_229\n        /* \"#utility.yul\":9681:9688   */\n      dup9\n        /* \"#utility.yul\":9672:9678   */\n      dup3\n        /* \"#utility.yul\":9661:9670   */\n      dup10\n        /* \"#utility.yul\":9657:9679   */\n      add\n        /* \"#utility.yul\":9626:9689   */\n      tag_129\n      jump\t// in\n    tag_229:\n        /* \"#utility.yul\":9616:9689   */\n      swap5\n      pop\n        /* \"#utility.yul\":9571:9699   */\n      pop\n        /* \"#utility.yul\":9738:9740   */\n      0x40\n        /* \"#utility.yul\":9764:9828   */\n      tag_230\n        /* \"#utility.yul\":9820:9827   */\n      dup9\n        /* \"#utility.yul\":9811:9817   */\n      dup3\n        /* \"#utility.yul\":9800:9809   */\n      dup10\n        /* \"#utility.yul\":9796:9818   */\n      add\n        /* \"#utility.yul\":9764:9828   */\n      tag_130\n      jump\t// in\n    tag_230:\n        /* \"#utility.yul\":9754:9828   */\n      swap4\n      pop\n        /* \"#utility.yul\":9709:9838   */\n      pop\n        /* \"#utility.yul\":9877:9879   */\n      0x60\n        /* \"#utility.yul\":9903:9967   */\n      tag_231\n        /* \"#utility.yul\":9959:9966   */\n      dup9\n        /* \"#utility.yul\":9950:9956   */\n      dup3\n        /* \"#utility.yul\":9939:9948   */\n      dup10\n        /* \"#utility.yul\":9935:9957   */\n      add\n        /* \"#utility.yul\":9903:9967   */\n      tag_130\n      jump\t// in\n    tag_231:\n        /* \"#utility.yul\":9893:9967   */\n      swap3\n      pop\n        /* \"#utility.yul\":9848:9977   */\n      pop\n        /* \"#utility.yul\":10016:10019   */\n      0x80\n        /* \"#utility.yul\":10043:10106   */\n      tag_232\n        /* \"#utility.yul\":10098:10105   */\n      dup9\n        /* \"#utility.yul\":10089:10095   */\n      dup3\n        /* \"#utility.yul\":10078:10087   */\n      dup10\n        /* \"#utility.yul\":10074:10096   */\n      add\n        /* \"#utility.yul\":10043:10106   */\n      tag_126\n      jump\t// in\n    tag_232:\n        /* \"#utility.yul\":10033:10106   */\n      swap2\n      pop\n        /* \"#utility.yul\":9987:10116   */\n      pop\n        /* \"#utility.yul\":9152:10123   */\n      swap3\n      swap6\n      pop\n      swap3\n      swap6\n      swap1\n      swap4\n      pop\n      jump\t// out\n        /* \"#utility.yul\":10129:10685   */\n    tag_92:\n        /* \"#utility.yul\":10168:10175   */\n      0x00\n        /* \"#utility.yul\":10191:10210   */\n      tag_234\n        /* \"#utility.yul\":10208:10209   */\n      dup3\n        /* \"#utility.yul\":10191:10210   */\n      tag_127\n      jump\t// in\n    tag_234:\n        /* \"#utility.yul\":10186:10210   */\n      swap2\n      pop\n        /* \"#utility.yul\":10224:10243   */\n      tag_235\n        /* \"#utility.yul\":10241:10242   */\n      dup4\n        /* \"#utility.yul\":10224:10243   */\n      tag_127\n      jump\t// in\n    tag_235:\n        /* \"#utility.yul\":10219:10243   */\n      swap3\n      pop\n        /* \"#utility.yul\":10278:10279   */\n      dup3\n        /* \"#utility.yul\":10275:10276   */\n      dup3\n        /* \"#utility.yul\":10271:10280   */\n      mul\n        /* \"#utility.yul\":10300:10329   */\n      tag_236\n        /* \"#utility.yul\":10317:10328   */\n      dup2\n        /* \"#utility.yul\":10300:10329   */\n      tag_127\n      jump\t// in\n    tag_236:\n        /* \"#utility.yul\":10289:10329   */\n      swap2\n      pop\n        /* \"#utility.yul\":10387:10453   */\n      0x8000000000000000000000000000000000000000000000000000000000000000\n        /* \"#utility.yul\":10384:10385   */\n      dup5\n        /* \"#utility.yul\":10381:10454   */\n      eq\n        /* \"#utility.yul\":10377:10378   */\n      0x00\n        /* \"#utility.yul\":10374:10375   */\n      dup5\n        /* \"#utility.yul\":10370:10379   */\n      slt\n        /* \"#utility.yul\":10366:10455   */\n      and\n        /* \"#utility.yul\":10363:10478   */\n      iszero\n      tag_237\n      jumpi\n        /* \"#utility.yul\":10458:10476   */\n      tag_238\n      tag_115\n      jump\t// in\n    tag_238:\n        /* \"#utility.yul\":10363:10478   */\n    tag_237:\n        /* \"#utility.yul\":10628:10629   */\n      dup3\n        /* \"#utility.yul\":10619:10626   */\n      dup3\n        /* \"#utility.yul\":10614:10630   */\n      sdiv\n        /* \"#utility.yul\":10611:10612   */\n      dup5\n        /* \"#utility.yul\":10608:10631   */\n      eq\n        /* \"#utility.yul\":10588:10589   */\n      dup4\n        /* \"#utility.yul\":10581:10590   */\n      iszero\n        /* \"#utility.yul\":10561:10645   */\n      or\n        /* \"#utility.yul\":10538:10678   */\n      tag_239\n      jumpi\n        /* \"#utility.yul\":10658:10676   */\n      tag_240\n      tag_115\n      jump\t// in\n    tag_240:\n        /* \"#utility.yul\":10538:10678   */\n    tag_239:\n        /* \"#utility.yul\":10176:10685   */\n      pop\n        /* \"#utility.yul\":10129:10685   */\n      swap3\n      swap2\n      pop\n      pop\n      jump\t// out\n\n    auxdata: 0xa264697066735822122069d75f24ad8ec077b53569d88dd4c20f1ae4cefaead84a0a87a3acdc8fbd659f64736f6c634300081e0033\n}\n",
				"bytecode": {
					"linkReferences": {},
					"object": "60a0604052348015600e575f5ffd5b503373ffffffffffffffffffffffffffffffffffffffff1660808173ffffffffffffffffffffffffffffffffffffffff1681525050608051610c5a6100625f395f818161027701526104c30152610c5a5ff3fe608060405260043610610058575f3560e01c8063257d9bb8146100715780633ccfd60b1461009b578063b60d4288146100b1578063d0d1f2cb146100bb578063dba6335f146100f7578063dc0d3dff1461012157610067565b366100675761006561015d565b005b61006f61015d565b005b34801561007c575f5ffd5b50610085610269565b60405161009291906106b1565b60405180910390f35b3480156100a6575f5ffd5b506100af610275565b005b6100b961015d565b005b3480156100c6575f5ffd5b506100e160048036038101906100dc9190610728565b6104ac565b6040516100ee91906106b1565b60405180910390f35b348015610102575f5ffd5b5061010b6104c1565b6040516101189190610762565b60405180910390f35b34801561012c575f5ffd5b50610147600480360381019061014291906107a5565b6104e5565b6040516101549190610762565b60405180910390f35b674563918244f4000061016f3461051f565b10156101b0576040517f08c379a00000000000000000000000000000000000000000000000000000000081526004016101a79061082a565b60405180910390fd5b5f3390505f81908060018154018082558091505060019003905f5260205f20015f9091909190916101000a81548173ffffffffffffffffffffffffffffffffffffffff021916908373ffffffffffffffffffffffffffffffffffffffff1602179055503460015f8373ffffffffffffffffffffffffffffffffffffffff1673ffffffffffffffffffffffffffffffffffffffff1681526020019081526020015f205f82825461025f9190610875565b9250508190555050565b674563918244f4000081565b7f000000000000000000000000000000000000000000000000000000000000000073ffffffffffffffffffffffffffffffffffffffff163373ffffffffffffffffffffffffffffffffffffffff1614610303576040517f08c379a00000000000000000000000000000000000000000000000000000000081526004016102fa906108f2565b60405180910390fd5b5f5f90505b5f805490508110156103a2575f5f828154811061032857610327610910565b5b905f5260205f20015f9054906101000a900473ffffffffffffffffffffffffffffffffffffffff1690505f60015f8373ffffffffffffffffffffffffffffffffffffffff1673ffffffffffffffffffffffffffffffffffffffff1681526020019081526020015f2081905550508080600101915050610308565b505f67ffffffffffffffff8111156103bd576103bc61093d565b5b6040519080825280602002602001820160405280156103eb5781602001602082028036833780820191505090505b505f90805190602001906104009291906105f7565b505f3373ffffffffffffffffffffffffffffffffffffffff164760405161042690610997565b5f6040518083038185875af1925050503d805f8114610460576040519150601f19603f3d011682016040523d82523d5f602084013e610465565b606091505b50509050806104a9576040517f08c379a00000000000000000000000000000000000000000000000000000000081526004016104a0906109f5565b60405180910390fd5b50565b6001602052805f5260405f205f915090505481565b7f000000000000000000000000000000000000000000000000000000000000000081565b5f81815481106104f3575f80fd5b905f5260205f20015f915054906101000a900473ffffffffffffffffffffffffffffffffffffffff1681565b5f5f610529610552565b9050670de0b6b3a764000081846105409190610a13565b61054a9190610a81565b915050919050565b5f5f73694aa1769357215de4fac081bf1f309adc32530690505f8173ffffffffffffffffffffffffffffffffffffffff1663feaf968c6040518163ffffffff1660e01b815260040160a060405180830381865afa1580156105b5573d5f5f3e3d5ffd5b505050506040513d601f19601f820116820180604052508101906105d99190610b37565b5050509150506402540be400816105f09190610bae565b9250505090565b828054828255905f5260205f2090810192821561066d579160200282015b8281111561066c578251825f6101000a81548173ffffffffffffffffffffffffffffffffffffffff021916908373ffffffffffffffffffffffffffffffffffffffff16021790555091602001919060010190610615565b5b50905061067a919061067e565b5090565b5b80821115610695575f815f90555060010161067f565b5090565b5f819050919050565b6106ab81610699565b82525050565b5f6020820190506106c45f8301846106a2565b92915050565b5f5ffd5b5f73ffffffffffffffffffffffffffffffffffffffff82169050919050565b5f6106f7826106ce565b9050919050565b610707816106ed565b8114610711575f5ffd5b50565b5f81359050610722816106fe565b92915050565b5f6020828403121561073d5761073c6106ca565b5b5f61074a84828501610714565b91505092915050565b61075c816106ed565b82525050565b5f6020820190506107755f830184610753565b92915050565b61078481610699565b811461078e575f5ffd5b50565b5f8135905061079f8161077b565b92915050565b5f602082840312156107ba576107b96106ca565b5b5f6107c784828501610791565b91505092915050565b5f82825260208201905092915050565b7f4d7573742073656e64206174206c6561737420312045544800000000000000005f82015250565b5f6108146018836107d0565b915061081f826107e0565b602082019050919050565b5f6020820190508181035f83015261084181610808565b9050919050565b7f4e487b71000000000000000000000000000000000000000000000000000000005f52601160045260245ffd5b5f61087f82610699565b915061088a83610699565b92508282019050808211156108a2576108a1610848565b5b92915050565b7f4e6f7420617574686f72697a65640000000000000000000000000000000000005f82015250565b5f6108dc600e836107d0565b91506108e7826108a8565b602082019050919050565b5f6020820190508181035f830152610909816108d0565b9050919050565b7f4e487b71000000000000000000000000000000000000000000000000000000005f52603260045260245ffd5b7f4e487b71000000000000000000000000000000000000000000000000000000005f52604160045260245ffd5b5f81905092915050565b50565b5f6109825f8361096a565b915061098d82610974565b5f82019050919050565b5f6109a182610977565b9150819050919050565b7f43616c6c206661696c65640000000000000000000000000000000000000000005f82015250565b5f6109df600b836107d0565b91506109ea826109ab565b602082019050919050565b5f6020820190508181035f830152610a0c816109d3565b9050919050565b5f610a1d82610699565b9150610a2883610699565b9250828202610a3681610699565b91508282048414831517610a4d57610a4c610848565b5b5092915050565b7f4e487b71000000000000000000000000000000000000000000000000000000005f52601260045260245ffd5b5f610a8b82610699565b9150610a9683610699565b925082610aa657610aa5610a54565b5b828204905092915050565b5f69ffffffffffffffffffff82169050919050565b610acf81610ab1565b8114610ad9575f5ffd5b50565b5f81519050610aea81610ac6565b92915050565b5f819050919050565b610b0281610af0565b8114610b0c575f5ffd5b50565b5f81519050610b1d81610af9565b92915050565b5f81519050610b318161077b565b92915050565b5f5f5f5f5f60a08688031215610b5057610b4f6106ca565b5b5f610b5d88828901610adc565b9550506020610b6e88828901610b0f565b9450506040610b7f88828901610b23565b9350506060610b9088828901610b23565b9250506080610ba188828901610adc565b9150509295509295909350565b5f610bb882610af0565b9150610bc383610af0565b9250828202610bd181610af0565b91507f800000000000000000000000000000000000000000000000000000000000000084145f84121615610c0857610c07610848565b5b8282058414831517610c1d57610c1c610848565b5b509291505056fea264697066735822122069d75f24ad8ec077b53569d88dd4c20f1ae4cefaead84a0a87a3acdc8fbd659f64736f6c634300081e0033",
					"opcodes": "PUSH1 0xA0 PUSH1 0x40 MSTORE CALLVALUE DUP1 ISZERO PUSH1 0xE JUMPI PUSH0 PUSH0 REVERT JUMPDEST POP CALLER PUSH20 0xFFFFFFFFFFFFFFFFFFFFFFFFFFFFFFFFFFFFFFFF AND PUSH1 0x80 DUP2 PUSH20 0xFFFFFFFFFFFFFFFFFFFFFFFFFFFFFFFFFFFFFFFF AND DUP2 MSTORE POP POP PUSH1 0x80 MLOAD PUSH2 0xC5A PUSH2 0x62 PUSH0 CODECOPY PUSH0 DUP2 DUP2 PUSH2 0x277 ADD MSTORE PUSH2 0x4C3 ADD MSTORE PUSH2 0xC5A PUSH0 RETURN INVALID PUSH1 0x80 PUSH1 0x40 MSTORE PUSH1 0x4 CALLDATASIZE LT PUSH2 0x58 JUMPI PUSH0 CALLDATALOAD PUSH1 0xE0 SHR DUP1 PUSH4 0x257D9BB8 EQ PUSH2 0x71 JUMPI DUP1 PUSH4 0x3CCFD60B EQ PUSH2 0x9B JUMPI DUP1 PUSH4 0xB60D4288 EQ PUSH2 0xB1 JUMPI DUP1 PUSH4 0xD0D1F2CB EQ PUSH2 0xBB JUMPI DUP1 PUSH4 0xDBA6335F EQ PUSH2 0xF7 JUMPI DUP1 PUSH4 0xDC0D3DFF EQ PUSH2 0x121 JUMPI PUSH2 0x67 JUMP JUMPDEST CALLDATASIZE PUSH2 0x67 JUMPI PUSH2 0x65 PUSH2 0x15D JUMP JUMPDEST STOP JUMPDEST PUSH2 0x6F PUSH2 0x15D JUMP JUMPDEST STOP JUMPDEST CALLVALUE DUP1 ISZERO PUSH2 0x7C JUMPI PUSH0 PUSH0 REVERT JUMPDEST POP PUSH2 0x85 PUSH2 0x269 JUMP JUMPDEST PUSH1 0x40 MLOAD PUSH2 0x92 SWAP2 SWAP1 PUSH2 0x6B1 JUMP JUMPDEST PUSH1 0x40 MLOAD DUP1 SWAP2 SUB SWAP1 RETURN JUMPDEST CALLVALUE DUP1 ISZERO PUSH2 0xA6 JUMPI PUSH0 PUSH0 REVERT JUMPDEST POP PUSH2 0xAF PUSH2 0x275 JUMP JUMPDEST STOP JUMPDEST PUSH2 0xB9 PUSH2 0x15D JUMP JUMPDEST STOP JUMPDEST CALLVALUE DUP1 ISZERO PUSH2 0xC6 JUMPI PUSH0 PUSH0 REVERT JUMPDEST POP PUSH2 0xE1 PUSH1 0x4 DUP1 CALLDATASIZE SUB DUP2 ADD SWAP1 PUSH2 0xDC SWAP2 SWAP1 PUSH2 0x728 JUMP JUMPDEST PUSH2 0x4AC JUMP JUMPDEST PUSH1 0x40 MLOAD PUSH2 0xEE SWAP2 SWAP1 PUSH2 0x6B1 JUMP JUMPDEST PUSH1 0x40 MLOAD DUP1 SWAP2 SUB SWAP1 RETURN JUMPDEST CALLVALUE DUP1 ISZERO PUSH2 0x102 JUMPI PUSH0 PUSH0 REVERT JUMPDEST POP PUSH2 0x10B PUSH2 0x4C1 JUMP JUMPDEST PUSH1 0x40 MLOAD PUSH2 0x118 SWAP2 SWAP1 PUSH2 0x762 JUMP JUMPDEST PUSH1 0x40 MLOAD DUP1 SWAP2 SUB SWAP1 RETURN JUMPDEST CALLVALUE DUP1 ISZERO PUSH2 0x12C JUMPI PUSH0 PUSH0 REVERT JUMPDEST POP PUSH2 0x147 PUSH1 0x4 DUP1 CALLDATASIZE SUB DUP2 ADD SWAP1 PUSH2 0x142 SWAP2 SWAP1 PUSH2 0x7A5 JUMP JUMPDEST PUSH2 0x4E5 JUMP JUMPDEST PUSH1 0x40 MLOAD PUSH2 0x154 SWAP2 SWAP1 PUSH2 0x762 JUMP JUMPDEST PUSH1 0x40 MLOAD DUP1 SWAP2 SUB SWAP1 RETURN JUMPDEST PUSH8 0x4563918244F40000 PUSH2 0x16F CALLVALUE PUSH2 0x51F JUMP JUMPDEST LT ISZERO PUSH2 0x1B0 JUMPI PUSH1 0x40 MLOAD PUSH32 0x8C379A000000000000000000000000000000000000000000000000000000000 DUP2 MSTORE PUSH1 0x4 ADD PUSH2 0x1A7 SWAP1 PUSH2 0x82A JUMP JUMPDEST PUSH1 0x40 MLOAD DUP1 SWAP2 SUB SWAP1 REVERT JUMPDEST PUSH0 CALLER SWAP1 POP PUSH0 DUP2 SWAP1 DUP1 PUSH1 0x1 DUP2 SLOAD ADD DUP1 DUP3 SSTORE DUP1 SWAP2 POP POP PUSH1 0x1 SWAP1 SUB SWAP1 PUSH0 MSTORE PUSH1 0x20 PUSH0 KECCAK256 ADD PUSH0 SWAP1 SWAP2 SWAP1 SWAP2 SWAP1 SWAP2 PUSH2 0x100 EXP DUP2 SLOAD DUP2 PUSH20 0xFFFFFFFFFFFFFFFFFFFFFFFFFFFFFFFFFFFFFFFF MUL NOT AND SWAP1 DUP4 PUSH20 0xFFFFFFFFFFFFFFFFFFFFFFFFFFFFFFFFFFFFFFFF AND MUL OR SWAP1 SSTORE POP CALLVALUE PUSH1 0x1 PUSH0 DUP4 PUSH20 0xFFFFFFFFFFFFFFFFFFFFFFFFFFFFFFFFFFFFFFFF AND PUSH20 0xFFFFFFFFFFFFFFFFFFFFFFFFFFFFFFFFFFFFFFFF AND DUP2 MSTORE PUSH1 0x20 ADD SWAP1 DUP2 MSTORE PUSH1 0x20 ADD PUSH0 KECCAK256 PUSH0 DUP3 DUP3 SLOAD PUSH2 0x25F SWAP2 SWAP1 PUSH2 0x875 JUMP JUMPDEST SWAP3 POP POP DUP2 SWAP1 SSTORE POP POP JUMP JUMPDEST PUSH8 0x4563918244F40000 DUP2 JUMP JUMPDEST PUSH32 0x0 PUSH20 0xFFFFFFFFFFFFFFFFFFFFFFFFFFFFFFFFFFFFFFFF AND CALLER PUSH20 0xFFFFFFFFFFFFFFFFFFFFFFFFFFFFFFFFFFFFFFFF AND EQ PUSH2 0x303 JUMPI PUSH1 0x40 MLOAD PUSH32 0x8C379A000000000000000000000000000000000000000000000000000000000 DUP2 MSTORE PUSH1 0x4 ADD PUSH2 0x2FA SWAP1 PUSH2 0x8F2 JUMP JUMPDEST PUSH1 0x40 MLOAD DUP1 SWAP2 SUB SWAP1 REVERT JUMPDEST PUSH0 PUSH0 SWAP1 POP JUMPDEST PUSH0 DUP1 SLOAD SWAP1 POP DUP2 LT ISZERO PUSH2 0x3A2 JUMPI PUSH0 PUSH0 DUP3 DUP2 SLOAD DUP2 LT PUSH2 0x328 JUMPI PUSH2 0x327 PUSH2 0x910 JUMP JUMPDEST JUMPDEST SWAP1 PUSH0 MSTORE PUSH1 0x20 PUSH0 KECCAK256 ADD PUSH0 SWAP1 SLOAD SWAP1 PUSH2 0x100 EXP SWAP1 DIV PUSH20 0xFFFFFFFFFFFFFFFFFFFFFFFFFFFFFFFFFFFFFFFF AND SWAP1 POP PUSH0 PUSH1 0x1 PUSH0 DUP4 PUSH20 0xFFFFFFFFFFFFFFFFFFFFFFFFFFFFFFFFFFFFFFFF AND PUSH20 0xFFFFFFFFFFFFFFFFFFFFFFFFFFFFFFFFFFFFFFFF AND DUP2 MSTORE PUSH1 0x20 ADD SWAP1 DUP2 MSTORE PUSH1 0x20 ADD PUSH0 KECCAK256 DUP2 SWAP1 SSTORE POP POP DUP1 DUP1 PUSH1 0x1 ADD SWAP2 POP POP PUSH2 0x308 JUMP JUMPDEST POP PUSH0 PUSH8 0xFFFFFFFFFFFFFFFF DUP2 GT ISZERO PUSH2 0x3BD JUMPI PUSH2 0x3BC PUSH2 0x93D JUMP JUMPDEST JUMPDEST PUSH1 0x40 MLOAD SWAP1 DUP1 DUP3 MSTORE DUP1 PUSH1 0x20 MUL PUSH1 0x20 ADD DUP3 ADD PUSH1 0x40 MSTORE DUP1 ISZERO PUSH2 0x3EB JUMPI DUP2 PUSH1 0x20 ADD PUSH1 0x20 DUP3 MUL DUP1 CALLDATASIZE DUP4 CALLDATACOPY DUP1 DUP3 ADD SWAP2 POP POP SWAP1 POP JUMPDEST POP PUSH0 SWAP1 DUP1 MLOAD SWAP1 PUSH1 0x20 ADD SWAP1 PUSH2 0x400 SWAP3 SWAP2 SWAP1 PUSH2 0x5F7 JUMP JUMPDEST POP PUSH0 CALLER PUSH20 0xFFFFFFFFFFFFFFFFFFFFFFFFFFFFFFFFFFFFFFFF AND SELFBALANCE PUSH1 0x40 MLOAD PUSH2 0x426 SWAP1 PUSH2 0x997 JUMP JUMPDEST PUSH0 PUSH1 0x40 MLOAD DUP1 DUP4 SUB DUP2 DUP6 DUP8 GAS CALL SWAP3 POP POP POP RETURNDATASIZE DUP1 PUSH0 DUP2 EQ PUSH2 0x460 JUMPI PUSH1 0x40 MLOAD SWAP2 POP PUSH1 0x1F NOT PUSH1 0x3F RETURNDATASIZE ADD AND DUP3 ADD PUSH1 0x40 MSTORE RETURNDATASIZE DUP3 MSTORE RETURNDATASIZE PUSH0 PUSH1 0x20 DUP5 ADD RETURNDATACOPY PUSH2 0x465 JUMP JUMPDEST PUSH1 0x60 SWAP2 POP JUMPDEST POP POP SWAP1 POP DUP1 PUSH2 0x4A9 JUMPI PUSH1 0x40 MLOAD PUSH32 0x8C379A000000000000000000000000000000000000000000000000000000000 DUP2 MSTORE PUSH1 0x4 ADD PUSH2 0x4A0 SWAP1 PUSH2 0x9F5 JUMP JUMPDEST PUSH1 0x40 MLOAD DUP1 SWAP2 SUB SWAP1 REVERT JUMPDEST POP JUMP JUMPDEST PUSH1 0x1 PUSH1 0x20 MSTORE DUP1 PUSH0 MSTORE PUSH1 0x40 PUSH0 KECCAK256 PUSH0 SWAP2 POP SWAP1 POP SLOAD DUP2 JUMP JUMPDEST PUSH32 0x0 DUP2 JUMP JUMPDEST PUSH0 DUP2 DUP2 SLOAD DUP2 LT PUSH2 0x4F3 JUMPI PUSH0 DUP1 REVERT JUMPDEST SWAP1 PUSH0 MSTORE PUSH1 0x20 PUSH0 KECCAK256 ADD PUSH0 SWAP2 POP SLOAD SWAP1 PUSH2 0x100 EXP SWAP1 DIV PUSH20 0xFFFFFFFFFFFFFFFFFFFFFFFFFFFFFFFFFFFFFFFF AND DUP2 JUMP JUMPDEST PUSH0 PUSH0 PUSH2 0x529 PUSH2 0x552 JUMP JUMPDEST SWAP1 POP PUSH8 0xDE0B6B3A7640000 DUP2 DUP5 PUSH2 0x540 SWAP2 SWAP1 PUSH2 0xA13 JUMP JUMPDEST PUSH2 0x54A SWAP2 SWAP1 PUSH2 0xA81 JUMP JUMPDEST SWAP2 POP POP SWAP2 SWAP1 POP JUMP JUMPDEST PUSH0 PUSH0 PUSH20 0x694AA1769357215DE4FAC081BF1F309ADC325306 SWAP1 POP PUSH0 DUP2 PUSH20 0xFFFFFFFFFFFFFFFFFFFFFFFFFFFFFFFFFFFFFFFF AND PUSH4 0xFEAF968C PUSH1 0x40 MLOAD DUP2 PUSH4 0xFFFFFFFF AND PUSH1 0xE0 SHL DUP2 MSTORE PUSH1 0x4 ADD PUSH1 0xA0 PUSH1 0x40 MLOAD DUP1 DUP4 SUB DUP2 DUP7 GAS STATICCALL ISZERO DUP1 ISZERO PUSH2 0x5B5 JUMPI RETURNDATASIZE PUSH0 PUSH0 RETURNDATACOPY RETURNDATASIZE PUSH0 REVERT JUMPDEST POP POP POP POP PUSH1 0x40 MLOAD RETURNDATASIZE PUSH1 0x1F NOT PUSH1 0x1F DUP3 ADD AND DUP3 ADD DUP1 PUSH1 0x40 MSTORE POP DUP2 ADD SWAP1 PUSH2 0x5D9 SWAP2 SWAP1 PUSH2 0xB37 JUMP JUMPDEST POP POP POP SWAP2 POP POP PUSH5 0x2540BE400 DUP2 PUSH2 0x5F0 SWAP2 SWAP1 PUSH2 0xBAE JUMP JUMPDEST SWAP3 POP POP POP SWAP1 JUMP JUMPDEST DUP3 DUP1 SLOAD DUP3 DUP3 SSTORE SWAP1 PUSH0 MSTORE PUSH1 0x20 PUSH0 KECCAK256 SWAP1 DUP2 ADD SWAP3 DUP3 ISZERO PUSH2 0x66D JUMPI SWAP2 PUSH1 0x20 MUL DUP3 ADD JUMPDEST DUP3 DUP2 GT ISZERO PUSH2 0x66C JUMPI DUP3 MLOAD DUP3 PUSH0 PUSH2 0x100 EXP DUP2 SLOAD DUP2 PUSH20 0xFFFFFFFFFFFFFFFFFFFFFFFFFFFFFFFFFFFFFFFF MUL NOT AND SWAP1 DUP4 PUSH20 0xFFFFFFFFFFFFFFFFFFFFFFFFFFFFFFFFFFFFFFFF AND MUL OR SWAP1 SSTORE POP SWAP2 PUSH1 0x20 ADD SWAP2 SWAP1 PUSH1 0x1 ADD SWAP1 PUSH2 0x615 JUMP JUMPDEST JUMPDEST POP SWAP1 POP PUSH2 0x67A SWAP2 SWAP1 PUSH2 0x67E JUMP JUMPDEST POP SWAP1 JUMP JUMPDEST JUMPDEST DUP1 DUP3 GT ISZERO PUSH2 0x695 JUMPI PUSH0 DUP2 PUSH0 SWAP1 SSTORE POP PUSH1 0x1 ADD PUSH2 0x67F JUMP JUMPDEST POP SWAP1 JUMP JUMPDEST PUSH0 DUP2 SWAP1 POP SWAP2 SWAP1 POP JUMP JUMPDEST PUSH2 0x6AB DUP2 PUSH2 0x699 JUMP JUMPDEST DUP3 MSTORE POP POP JUMP JUMPDEST PUSH0 PUSH1 0x20 DUP3 ADD SWAP1 POP PUSH2 0x6C4 PUSH0 DUP4 ADD DUP5 PUSH2 0x6A2 JUMP JUMPDEST SWAP3 SWAP2 POP POP JUMP JUMPDEST PUSH0 PUSH0 REVERT JUMPDEST PUSH0 PUSH20 0xFFFFFFFFFFFFFFFFFFFFFFFFFFFFFFFFFFFFFFFF DUP3 AND SWAP1 POP SWAP2 SWAP1 POP JUMP JUMPDEST PUSH0 PUSH2 0x6F7 DUP3 PUSH2 0x6CE JUMP JUMPDEST SWAP1 POP SWAP2 SWAP1 POP JUMP JUMPDEST PUSH2 0x707 DUP2 PUSH2 0x6ED JUMP JUMPDEST DUP2 EQ PUSH2 0x711 JUMPI PUSH0 PUSH0 REVERT JUMPDEST POP JUMP JUMPDEST PUSH0 DUP2 CALLDATALOAD SWAP1 POP PUSH2 0x722 DUP2 PUSH2 0x6FE JUMP JUMPDEST SWAP3 SWAP2 POP POP JUMP JUMPDEST PUSH0 PUSH1 0x20 DUP3 DUP5 SUB SLT ISZERO PUSH2 0x73D JUMPI PUSH2 0x73C PUSH2 0x6CA JUMP JUMPDEST JUMPDEST PUSH0 PUSH2 0x74A DUP5 DUP3 DUP6 ADD PUSH2 0x714 JUMP JUMPDEST SWAP2 POP POP SWAP3 SWAP2 POP POP JUMP JUMPDEST PUSH2 0x75C DUP2 PUSH2 0x6ED JUMP JUMPDEST DUP3 MSTORE POP POP JUMP JUMPDEST PUSH0 PUSH1 0x20 DUP3 ADD SWAP1 POP PUSH2 0x775 PUSH0 DUP4 ADD DUP5 PUSH2 0x753 JUMP JUMPDEST SWAP3 SWAP2 POP POP JUMP JUMPDEST PUSH2 0x784 DUP2 PUSH2 0x699 JUMP JUMPDEST DUP2 EQ PUSH2 0x78E JUMPI PUSH0 PUSH0 REVERT JUMPDEST POP JUMP JUMPDEST PUSH0 DUP2 CALLDATALOAD SWAP1 POP PUSH2 0x79F DUP2 PUSH2 0x77B JUMP JUMPDEST SWAP3 SWAP2 POP POP JUMP JUMPDEST PUSH0 PUSH1 0x20 DUP3 DUP5 SUB SLT ISZERO PUSH2 0x7BA JUMPI PUSH2 0x7B9 PUSH2 0x6CA JUMP JUMPDEST JUMPDEST PUSH0 PUSH2 0x7C7 DUP5 DUP3 DUP6 ADD PUSH2 0x791 JUMP JUMPDEST SWAP2 POP POP SWAP3 SWAP2 POP POP JUMP JUMPDEST PUSH0 DUP3 DUP3 MSTORE PUSH1 0x20 DUP3 ADD SWAP1 POP SWAP3 SWAP2 POP POP JUMP JUMPDEST PUSH32 0x4D7573742073656E64206174206C656173742031204554480000000000000000 PUSH0 DUP3 ADD MSTORE POP JUMP JUMPDEST PUSH0 PUSH2 0x814 PUSH1 0x18 DUP4 PUSH2 0x7D0 JUMP JUMPDEST SWAP2 POP PUSH2 0x81F DUP3 PUSH2 0x7E0 JUMP JUMPDEST PUSH1 0x20 DUP3 ADD SWAP1 POP SWAP2 SWAP1 POP JUMP JUMPDEST PUSH0 PUSH1 0x20 DUP3 ADD SWAP1 POP DUP2 DUP2 SUB PUSH0 DUP4 ADD MSTORE PUSH2 0x841 DUP2 PUSH2 0x808 JUMP JUMPDEST SWAP1 POP SWAP2 SWAP1 POP JUMP JUMPDEST PUSH32 0x4E487B7100000000000000000000000000000000000000000000000000000000 PUSH0 MSTORE PUSH1 0x11 PUSH1 0x4 MSTORE PUSH1 0x24 PUSH0 REVERT JUMPDEST PUSH0 PUSH2 0x87F DUP3 PUSH2 0x699 JUMP JUMPDEST SWAP2 POP PUSH2 0x88A DUP4 PUSH2 0x699 JUMP JUMPDEST SWAP3 POP DUP3 DUP3 ADD SWAP1 POP DUP1 DUP3 GT ISZERO PUSH2 0x8A2 JUMPI PUSH2 0x8A1 PUSH2 0x848 JUMP JUMPDEST JUMPDEST SWAP3 SWAP2 POP POP JUMP JUMPDEST PUSH32 0x4E6F7420617574686F72697A6564000000000000000000000000000000000000 PUSH0 DUP3 ADD MSTORE POP JUMP JUMPDEST PUSH0 PUSH2 0x8DC PUSH1 0xE DUP4 PUSH2 0x7D0 JUMP JUMPDEST SWAP2 POP PUSH2 0x8E7 DUP3 PUSH2 0x8A8 JUMP JUMPDEST PUSH1 0x20 DUP3 ADD SWAP1 POP SWAP2 SWAP1 POP JUMP JUMPDEST PUSH0 PUSH1 0x20 DUP3 ADD SWAP1 POP DUP2 DUP2 SUB PUSH0 DUP4 ADD MSTORE PUSH2 0x909 DUP2 PUSH2 0x8D0 JUMP JUMPDEST SWAP1 POP SWAP2 SWAP1 POP JUMP JUMPDEST PUSH32 0x4E487B7100000000000000000000000000000000000000000000000000000000 PUSH0 MSTORE PUSH1 0x32 PUSH1 0x4 MSTORE PUSH1 0x24 PUSH0 REVERT JUMPDEST PUSH32 0x4E487B7100000000000000000000000000000000000000000000000000000000 PUSH0 MSTORE PUSH1 0x41 PUSH1 0x4 MSTORE PUSH1 0x24 PUSH0 REVERT JUMPDEST PUSH0 DUP2 SWAP1 POP SWAP3 SWAP2 POP POP JUMP JUMPDEST POP JUMP JUMPDEST PUSH0 PUSH2 0x982 PUSH0 DUP4 PUSH2 0x96A JUMP JUMPDEST SWAP2 POP PUSH2 0x98D DUP3 PUSH2 0x974 JUMP JUMPDEST PUSH0 DUP3 ADD SWAP1 POP SWAP2 SWAP1 POP JUMP JUMPDEST PUSH0 PUSH2 0x9A1 DUP3 PUSH2 0x977 JUMP JUMPDEST SWAP2 POP DUP2 SWAP1 POP SWAP2 SWAP1 POP JUMP JUMPDEST PUSH32 0x43616C6C206661696C6564000000000000000000000000000000000000000000 PUSH0 DUP3 ADD MSTORE POP JUMP JUMPDEST PUSH0 PUSH2 0x9DF PUSH1 0xB DUP4 PUSH2 0x7D0 JUMP JUMPDEST SWAP2 POP PUSH2 0x9EA DUP3 PUSH2 0x9AB JUMP JUMPDEST PUSH1 0x20 DUP3 ADD SWAP1 POP SWAP2 SWAP1 POP JUMP JUMPDEST PUSH0 PUSH1 0x20 DUP3 ADD SWAP1 POP DUP2 DUP2 SUB PUSH0 DUP4 ADD MSTORE PUSH2 0xA0C DUP2 PUSH2 0x9D3 JUMP JUMPDEST SWAP1 POP SWAP2 SWAP1 POP JUMP JUMPDEST PUSH0 PUSH2 0xA1D DUP3 PUSH2 0x699 JUMP JUMPDEST SWAP2 POP PUSH2 0xA28 DUP4 PUSH2 0x699 JUMP JUMPDEST SWAP3 POP DUP3 DUP3 MUL PUSH2 0xA36 DUP2 PUSH2 0x699 JUMP JUMPDEST SWAP2 POP DUP3 DUP3 DIV DUP5 EQ DUP4 ISZERO OR PUSH2 0xA4D JUMPI PUSH2 0xA4C PUSH2 0x848 JUMP JUMPDEST JUMPDEST POP SWAP3 SWAP2 POP POP JUMP JUMPDEST PUSH32 0x4E487B7100000000000000000000000000000000000000000000000000000000 PUSH0 MSTORE PUSH1 0x12 PUSH1 0x4 MSTORE PUSH1 0x24 PUSH0 REVERT JUMPDEST PUSH0 PUSH2 0xA8B DUP3 PUSH2 0x699 JUMP JUMPDEST SWAP2 POP PUSH2 0xA96 DUP4 PUSH2 0x699 JUMP JUMPDEST SWAP3 POP DUP3 PUSH2 0xAA6 JUMPI PUSH2 0xAA5 PUSH2 0xA54 JUMP JUMPDEST JUMPDEST DUP3 DUP3 DIV SWAP1 POP SWAP3 SWAP2 POP POP JUMP JUMPDEST PUSH0 PUSH10 0xFFFFFFFFFFFFFFFFFFFF DUP3 AND SWAP1 POP SWAP2 SWAP1 POP JUMP JUMPDEST PUSH2 0xACF DUP2 PUSH2 0xAB1 JUMP JUMPDEST DUP2 EQ PUSH2 0xAD9 JUMPI PUSH0 PUSH0 REVERT JUMPDEST POP JUMP JUMPDEST PUSH0 DUP2 MLOAD SWAP1 POP PUSH2 0xAEA DUP2 PUSH2 0xAC6 JUMP JUMPDEST SWAP3 SWAP2 POP POP JUMP JUMPDEST PUSH0 DUP2 SWAP1 POP SWAP2 SWAP1 POP JUMP JUMPDEST PUSH2 0xB02 DUP2 PUSH2 0xAF0 JUMP JUMPDEST DUP2 EQ PUSH2 0xB0C JUMPI PUSH0 PUSH0 REVERT JUMPDEST POP JUMP JUMPDEST PUSH0 DUP2 MLOAD SWAP1 POP PUSH2 0xB1D DUP2 PUSH2 0xAF9 JUMP JUMPDEST SWAP3 SWAP2 POP POP JUMP JUMPDEST PUSH0 DUP2 MLOAD SWAP1 POP PUSH2 0xB31 DUP2 PUSH2 0x77B JUMP JUMPDEST SWAP3 SWAP2 POP POP JUMP JUMPDEST PUSH0 PUSH0 PUSH0 PUSH0 PUSH0 PUSH1 0xA0 DUP7 DUP9 SUB SLT ISZERO PUSH2 0xB50 JUMPI PUSH2 0xB4F PUSH2 0x6CA JUMP JUMPDEST JUMPDEST PUSH0 PUSH2 0xB5D DUP9 DUP3 DUP10 ADD PUSH2 0xADC JUMP JUMPDEST SWAP6 POP POP PUSH1 0x20 PUSH2 0xB6E DUP9 DUP3 DUP10 ADD PUSH2 0xB0F JUMP JUMPDEST SWAP5 POP POP PUSH1 0x40 PUSH2 0xB7F DUP9 DUP3 DUP10 ADD PUSH2 0xB23 JUMP JUMPDEST SWAP4 POP POP PUSH1 0x60 PUSH2 0xB90 DUP9 DUP3 DUP10 ADD PUSH2 0xB23 JUMP JUMPDEST SWAP3 POP POP PUSH1 0x80 PUSH2 0xBA1 DUP9 DUP3 DUP10 ADD PUSH2 0xADC JUMP JUMPDEST SWAP2 POP POP SWAP3 SWAP6 POP SWAP3 SWAP6 SWAP1 SWAP4 POP JUMP JUMPDEST PUSH0 PUSH2 0xBB8 DUP3 PUSH2 0xAF0 JUMP JUMPDEST SWAP2 POP PUSH2 0xBC3 DUP4 PUSH2 0xAF0 JUMP JUMPDEST SWAP3 POP DUP3 DUP3 MUL PUSH2 0xBD1 DUP2 PUSH2 0xAF0 JUMP JUMPDEST SWAP2 POP PUSH32 0x8000000000000000000000000000000000000000000000000000000000000000 DUP5 EQ PUSH0 DUP5 SLT AND ISZERO PUSH2 0xC08 JUMPI PUSH2 0xC07 PUSH2 0x848 JUMP JUMPDEST JUMPDEST DUP3 DUP3 SDIV DUP5 EQ DUP4 ISZERO OR PUSH2 0xC1D JUMPI PUSH2 0xC1C PUSH2 0x848 JUMP JUMPDEST JUMPDEST POP SWAP3 SWAP2 POP POP JUMP INVALID LOG2 PUSH5 0x6970667358 0x22 SLT KECCAK256 PUSH10 0xD75F24AD8EC077B53569 0xD8 DUP14 0xD4 0xC2 0xF BYTE RETF 0xCE STATICCALL 0xEA 0xD8 BLOBBASEFEE EXP DUP8 LOG3 0xAC 0xDC DUP16 0xBD PUSH6 0x9F64736F6C63 NUMBER STOP ADDMOD 0x1E STOP CALLER "
				},
				"gasEstimates": {
					"creation": {
						"codeDepositCost": "632400",
						"executionCost": "infinite",
						"totalCost": "infinite"
					},
					"external": {
						"": "infinite",
						"MINIMUM_AMOUNT()": "303",
						"fund()": "infinite",
						"funders(uint256)": "5031",
						"fundersAddress(address)": "2846",
						"i_owner()": "infinite",
						"withdraw()": "infinite"
					}
				},
				"methodIdentifiers": {
					"MINIMUM_AMOUNT()": "257d9bb8",
					"fund()": "b60d4288",
					"funders(uint256)": "dc0d3dff",
					"fundersAddress(address)": "d0d1f2cb",
					"i_owner()": "dba6335f",
					"withdraw()": "3ccfd60b"
				}
			},
			"storageLayout": {
				"storage": [
					{
						"astId": 58,
						"contract": "contracts/Solidity_basics_fund_me/FundMe.sol:FundMe",
						"label": "funders",
						"offset": 0,
						"slot": "0",
						"type": "t_array(t_address)dyn_storage"
					},
					{
						"astId": 62,
						"contract": "contracts/Solidity_basics_fund_me/FundMe.sol:FundMe",
						"label": "fundersAddress",
						"offset": 0,
						"slot": "1",
						"type": "t_mapping(t_address,t_uint256)"
					}
				],
				"types": {
					"t_address": {
						"encoding": "inplace",
						"label": "address",
						"numberOfBytes": "20"
					},
					"t_array(t_address)dyn_storage": {
						"base": "t_address",
						"encoding": "dynamic_array",
						"label": "address[]",
						"numberOfBytes": "32"
					},
					"t_mapping(t_address,t_uint256)": {
						"encoding": "mapping",
						"key": "t_address",
						"label": "mapping(address => uint256)",
						"numberOfBytes": "32",
						"value": "t_uint256"
					},
					"t_uint256": {
						"encoding": "inplace",
						"label": "uint256",
						"numberOfBytes": "32"
					}
				}
			},
			"userdoc": {
				"kind": "user",
				"methods": {},
				"version": 1
			}
		}
	}
}