{
	"data": {
		"bytecode": {
			"linkReferences": {},
			"object": "608060405234801561001057600080fd5b506108a4806100206000396000f3fe608060405234801561001057600080fd5b506004361061004c5760003560e01c80632e64cec1146100515780636057361d1461006f5780636f760f411461008b5780639b45fc32146100a7575b600080fd5b6100596100d8565b6040516100669190610246565b60405180910390f35b610089600480360381019061008491906102a1565b6100e1565b005b6100a560048036038101906100a09190610414565b610105565b005b6100c160048036038101906100bc91906102a1565b610171565b6040516100cf9291906104ef565b60405180910390f35b60008054905090565b806000819055506000546000808282546100fb919061054e565b9250508190555050565b600060405180604001604052808381526020018481525090506001819080600181540180825580915050600190039060005260206000209060020201600090919091909150600082015181600001556020820151816001019081610169919061079c565b505050505050565b6001818154811061018157600080fd5b90600052602060002090600202016000915090508060000154908060010180546101aa906105bf565b80601f01602080910402602001604051908101604052809291908181526020018280546101d6906105bf565b80156102235780601f106101f857610100808354040283529160200191610223565b820191906000526020600020905b81548152906001019060200180831161020657829003601f168201915b5050505050905082565b6000819050919050565b6102408161022d565b82525050565b600060208201905061025b6000830184610237565b92915050565b6000604051905090565b600080fd5b600080fd5b61027e8161022d565b811461028957600080fd5b50565b60008135905061029b81610275565b92915050565b6000602082840312156102b7576102b661026b565b5b60006102c58482850161028c565b91505092915050565b600080fd5b600080fd5b6000601f19601f8301169050919050565b7f4e487b7100000000000000000000000000000000000000000000000000000000600052604160045260246000fd5b610321826102d8565b810181811067ffffffffffffffff821117156103405761033f6102e9565b5b80604052505050565b6000610353610261565b905061035f8282610318565b919050565b600067ffffffffffffffff82111561037f5761037e6102e9565b5b610388826102d8565b9050602081019050919050565b82818337600083830152505050565b60006103b76103b284610364565b610349565b9050828152602081018484840111156103d3576103d26102d3565b5b6103de848285610395565b509392505050565b600082601f8301126103fb576103fa6102ce565b5b813561040b8482602086016103a4565b91505092915050565b6000806040838503121561042b5761042a61026b565b5b600083013567ffffffffffffffff81111561044957610448610270565b5b610455858286016103e6565b92505060206104668582860161028c565b9150509250929050565b600081519050919050565b600082825260208201905092915050565b60005b838110156104aa57808201518184015260208101905061048f565b60008484015250505050565b60006104c182610470565b6104cb818561047b565b93506104db81856020860161048c565b6104e4816102d8565b840191505092915050565b60006040820190506105046000830185610237565b818103602083015261051681846104b6565b90509392505050565b7f4e487b7100000000000000000000000000000000000000000000000000000000600052601160045260246000fd5b60006105598261022d565b91506105648361022d565b92508282026105728161022d565b915082820484148315176105895761058861051f565b5b5092915050565b7f4e487b7100000000000000000000000000000000000000000000000000000000600052602260045260246000fd5b600060028204905060018216806105d757607f821691505b6020821081036105ea576105e9610590565b5b50919050565b60008190508160005260206000209050919050565b60006020601f8301049050919050565b600082821b905092915050565b6000600883026106527fffffffffffffffffffffffffffffffffffffffffffffffffffffffffffffffff82610615565b61065c8683610615565b95508019841693508086168417925050509392505050565b6000819050919050565b600061069961069461068f8461022d565b610674565b61022d565b9050919050565b6000819050919050565b6106b38361067e565b6106c76106bf826106a0565b848454610622565b825550505050565b600090565b6106dc6106cf565b6106e78184846106aa565b505050565b5b8181101561070b576107006000826106d4565b6001810190506106ed565b5050565b601f82111561075057610721816105f0565b61072a84610605565b81016020851015610739578190505b61074d61074585610605565b8301826106ec565b50505b505050565b600082821c905092915050565b600061077360001984600802610755565b1980831691505092915050565b600061078c8383610762565b9150826002028217905092915050565b6107a582610470565b67ffffffffffffffff8111156107be576107bd6102e9565b5b6107c882546105bf565b6107d382828561070f565b600060209050601f83116001811461080657600084156107f4578287015190505b6107fe8582610780565b865550610866565b601f198416610814866105f0565b60005b8281101561083c57848901518255600182019150602085019450602081019050610817565b868310156108595784890151610855601f891682610762565b8355505b6001600288020188555050505b50505050505056fea2646970667358221220d0b415825063fa6d123e86ac5dd2745e6ea19b6e89fa15f0ce78b997bda56b3664736f6c63430008130033",
			"opcodes": "PUSH1 0x80 PUSH1 0x40 MSTORE CALLVALUE DUP1 ISZERO PUSH2 0x10 JUMPI PUSH1 0x0 DUP1 REVERT JUMPDEST POP PUSH2 0x8A4 DUP1 PUSH2 0x20 PUSH1 0x0 CODECOPY PUSH1 0x0 RETURN INVALID PUSH1 0x80 PUSH1 0x40 MSTORE CALLVALUE DUP1 ISZERO PUSH2 0x10 JUMPI PUSH1 0x0 DUP1 REVERT JUMPDEST POP PUSH1 0x4 CALLDATASIZE LT PUSH2 0x4C JUMPI PUSH1 0x0 CALLDATALOAD PUSH1 0xE0 SHR DUP1 PUSH4 0x2E64CEC1 EQ PUSH2 0x51 JUMPI DUP1 PUSH4 0x6057361D EQ PUSH2 0x6F JUMPI DUP1 PUSH4 0x6F760F41 EQ PUSH2 0x8B JUMPI DUP1 PUSH4 0x9B45FC32 EQ PUSH2 0xA7 JUMPI JUMPDEST PUSH1 0x0 DUP1 REVERT JUMPDEST PUSH2 0x59 PUSH2 0xD8 JUMP JUMPDEST PUSH1 0x40 MLOAD PUSH2 0x66 SWAP2 SWAP1 PUSH2 0x246 JUMP JUMPDEST PUSH1 0x40 MLOAD DUP1 SWAP2 SUB SWAP1 RETURN JUMPDEST PUSH2 0x89 PUSH1 0x4 DUP1 CALLDATASIZE SUB DUP2 ADD SWAP1 PUSH2 0x84 SWAP2 SWAP1 PUSH2 0x2A1 JUMP JUMPDEST PUSH2 0xE1 JUMP JUMPDEST STOP JUMPDEST PUSH2 0xA5 PUSH1 0x4 DUP1 CALLDATASIZE SUB DUP2 ADD SWAP1 PUSH2 0xA0 SWAP2 SWAP1 PUSH2 0x414 JUMP JUMPDEST PUSH2 0x105 JUMP JUMPDEST STOP JUMPDEST PUSH2 0xC1 PUSH1 0x4 DUP1 CALLDATASIZE SUB DUP2 ADD SWAP1 PUSH2 0xBC SWAP2 SWAP1 PUSH2 0x2A1 JUMP JUMPDEST PUSH2 0x171 JUMP JUMPDEST PUSH1 0x40 MLOAD PUSH2 0xCF SWAP3 SWAP2 SWAP1 PUSH2 0x4EF JUMP JUMPDEST PUSH1 0x40 MLOAD DUP1 SWAP2 SUB SWAP1 RETURN JUMPDEST PUSH1 0x0 DUP1 SLOAD SWAP1 POP SWAP1 JUMP JUMPDEST DUP1 PUSH1 0x0 DUP2 SWAP1 SSTORE POP PUSH1 0x0 SLOAD PUSH1 0x0 DUP1 DUP3 DUP3 SLOAD PUSH2 0xFB SWAP2 SWAP1 PUSH2 0x54E JUMP JUMPDEST SWAP3 POP POP DUP2 SWAP1 SSTORE POP POP JUMP JUMPDEST PUSH1 0x0 PUSH1 0x40 MLOAD DUP1 PUSH1 0x40 ADD PUSH1 0x40 MSTORE DUP1 DUP4 DUP2 MSTORE PUSH1 0x20 ADD DUP5 DUP2 MSTORE POP SWAP1 POP PUSH1 0x1 DUP2 SWAP1 DUP1 PUSH1 0x1 DUP2 SLOAD ADD DUP1 DUP3 SSTORE DUP1 SWAP2 POP POP PUSH1 0x1 SWAP1 SUB SWAP1 PUSH1 0x0 MSTORE PUSH1 0x20 PUSH1 0x0 KECCAK256 SWAP1 PUSH1 0x2 MUL ADD PUSH1 0x0 SWAP1 SWAP2 SWAP1 SWAP2 SWAP1 SWAP2 POP PUSH1 0x0 DUP3 ADD MLOAD DUP2 PUSH1 0x0 ADD SSTORE PUSH1 0x20 DUP3 ADD MLOAD DUP2 PUSH1 0x1 ADD SWAP1 DUP2 PUSH2 0x169 SWAP2 SWAP1 PUSH2 0x79C JUMP JUMPDEST POP POP POP POP POP POP JUMP JUMPDEST PUSH1 0x1 DUP2 DUP2 SLOAD DUP2 LT PUSH2 0x181 JUMPI PUSH1 0x0 DUP1 REVERT JUMPDEST SWAP1 PUSH1 0x0 MSTORE PUSH1 0x20 PUSH1 0x0 KECCAK256 SWAP1 PUSH1 0x2 MUL ADD PUSH1 0x0 SWAP2 POP SWAP1 POP DUP1 PUSH1 0x0 ADD SLOAD SWAP1 DUP1 PUSH1 0x1 ADD DUP1 SLOAD PUSH2 0x1AA SWAP1 PUSH2 0x5BF JUMP JUMPDEST DUP1 PUSH1 0x1F ADD PUSH1 0x20 DUP1 SWAP2 DIV MUL PUSH1 0x20 ADD PUSH1 0x40 MLOAD SWAP1 DUP2 ADD PUSH1 0x40 MSTORE DUP1 SWAP3 SWAP2 SWAP1 DUP2 DUP2 MSTORE PUSH1 0x20 ADD DUP3 DUP1 SLOAD PUSH2 0x1D6 SWAP1 PUSH2 0x5BF JUMP JUMPDEST DUP1 ISZERO PUSH2 0x223 JUMPI DUP1 PUSH1 0x1F LT PUSH2 0x1F8 JUMPI PUSH2 0x100 DUP1 DUP4 SLOAD DIV MUL DUP4 MSTORE SWAP2 PUSH1 0x20 ADD SWAP2 PUSH2 0x223 JUMP JUMPDEST DUP3 ADD SWAP2 SWAP1 PUSH1 0x0 MSTORE PUSH1 0x20 PUSH1 0x0 KECCAK256 SWAP1 JUMPDEST DUP2 SLOAD DUP2 MSTORE SWAP1 PUSH1 0x1 ADD SWAP1 PUSH1 0x20 ADD DUP1 DUP4 GT PUSH2 0x206 JUMPI DUP3 SWAP1 SUB PUSH1 0x1F AND DUP3 ADD SWAP2 JUMPDEST POP POP POP POP POP SWAP1 POP DUP3 JUMP JUMPDEST PUSH1 0x0 DUP2 SWAP1 POP SWAP2 SWAP1 POP JUMP JUMPDEST PUSH2 0x240 DUP2 PUSH2 0x22D JUMP JUMPDEST DUP3 MSTORE POP POP JUMP JUMPDEST PUSH1 0x0 PUSH1 0x20 DUP3 ADD SWAP1 POP PUSH2 0x25B PUSH1 0x0 DUP4 ADD DUP5 PUSH2 0x237 JUMP JUMPDEST SWAP3 SWAP2 POP POP JUMP JUMPDEST PUSH1 0x0 PUSH1 0x40 MLOAD SWAP1 POP SWAP1 JUMP JUMPDEST PUSH1 0x0 DUP1 REVERT JUMPDEST PUSH1 0x0 DUP1 REVERT JUMPDEST PUSH2 0x27E DUP2 PUSH2 0x22D JUMP JUMPDEST DUP2 EQ PUSH2 0x289 JUMPI PUSH1 0x0 DUP1 REVERT JUMPDEST POP JUMP JUMPDEST PUSH1 0x0 DUP2 CALLDATALOAD SWAP1 POP PUSH2 0x29B DUP2 PUSH2 0x275 JUMP JUMPDEST SWAP3 SWAP2 POP POP JUMP JUMPDEST PUSH1 0x0 PUSH1 0x20 DUP3 DUP5 SUB SLT ISZERO PUSH2 0x2B7 JUMPI PUSH2 0x2B6 PUSH2 0x26B JUMP JUMPDEST JUMPDEST PUSH1 0x0 PUSH2 0x2C5 DUP5 DUP3 DUP6 ADD PUSH2 0x28C JUMP JUMPDEST SWAP2 POP POP SWAP3 SWAP2 POP POP JUMP JUMPDEST PUSH1 0x0 DUP1 REVERT JUMPDEST PUSH1 0x0 DUP1 REVERT JUMPDEST PUSH1 0x0 PUSH1 0x1F NOT PUSH1 0x1F DUP4 ADD AND SWAP1 POP SWAP2 SWAP1 POP JUMP JUMPDEST PUSH32 0x4E487B7100000000000000000000000000000000000000000000000000000000 PUSH1 0x0 MSTORE PUSH1 0x41 PUSH1 0x4 MSTORE PUSH1 0x24 PUSH1 0x0 REVERT JUMPDEST PUSH2 0x321 DUP3 PUSH2 0x2D8 JUMP JUMPDEST DUP2 ADD DUP2 DUP2 LT PUSH8 0xFFFFFFFFFFFFFFFF DUP3 GT OR ISZERO PUSH2 0x340 JUMPI PUSH2 0x33F PUSH2 0x2E9 JUMP JUMPDEST JUMPDEST DUP1 PUSH1 0x40 MSTORE POP POP POP JUMP JUMPDEST PUSH1 0x0 PUSH2 0x353 PUSH2 0x261 JUMP JUMPDEST SWAP1 POP PUSH2 0x35F DUP3 DUP3 PUSH2 0x318 JUMP JUMPDEST SWAP2 SWAP1 POP JUMP JUMPDEST PUSH1 0x0 PUSH8 0xFFFFFFFFFFFFFFFF DUP3 GT ISZERO PUSH2 0x37F JUMPI PUSH2 0x37E PUSH2 0x2E9 JUMP JUMPDEST JUMPDEST PUSH2 0x388 DUP3 PUSH2 0x2D8 JUMP JUMPDEST SWAP1 POP PUSH1 0x20 DUP2 ADD SWAP1 POP SWAP2 SWAP1 POP JUMP JUMPDEST DUP3 DUP2 DUP4 CALLDATACOPY PUSH1 0x0 DUP4 DUP4 ADD MSTORE POP POP POP JUMP JUMPDEST PUSH1 0x0 PUSH2 0x3B7 PUSH2 0x3B2 DUP5 PUSH2 0x364 JUMP JUMPDEST PUSH2 0x349 JUMP JUMPDEST SWAP1 POP DUP3 DUP2 MSTORE PUSH1 0x20 DUP2 ADD DUP5 DUP5 DUP5 ADD GT ISZERO PUSH2 0x3D3 JUMPI PUSH2 0x3D2 PUSH2 0x2D3 JUMP JUMPDEST JUMPDEST PUSH2 0x3DE DUP5 DUP3 DUP6 PUSH2 0x395 JUMP JUMPDEST POP SWAP4 SWAP3 POP POP POP JUMP JUMPDEST PUSH1 0x0 DUP3 PUSH1 0x1F DUP4 ADD SLT PUSH2 0x3FB JUMPI PUSH2 0x3FA PUSH2 0x2CE JUMP JUMPDEST JUMPDEST DUP2 CALLDATALOAD PUSH2 0x40B DUP5 DUP3 PUSH1 0x20 DUP7 ADD PUSH2 0x3A4 JUMP JUMPDEST SWAP2 POP POP SWAP3 SWAP2 POP POP JUMP JUMPDEST PUSH1 0x0 DUP1 PUSH1 0x40 DUP4 DUP6 SUB SLT ISZERO PUSH2 0x42B JUMPI PUSH2 0x42A PUSH2 0x26B JUMP JUMPDEST JUMPDEST PUSH1 0x0 DUP4 ADD CALLDATALOAD PUSH8 0xFFFFFFFFFFFFFFFF DUP2 GT ISZERO PUSH2 0x449 JUMPI PUSH2 0x448 PUSH2 0x270 JUMP JUMPDEST JUMPDEST PUSH2 0x455 DUP6 DUP3 DUP7 ADD PUSH2 0x3E6 JUMP JUMPDEST SWAP3 POP POP PUSH1 0x20 PUSH2 0x466 DUP6 DUP3 DUP7 ADD PUSH2 0x28C JUMP JUMPDEST SWAP2 POP POP SWAP3 POP SWAP3 SWAP1 POP JUMP JUMPDEST PUSH1 0x0 DUP2 MLOAD SWAP1 POP SWAP2 SWAP1 POP JUMP JUMPDEST PUSH1 0x0 DUP3 DUP3 MSTORE PUSH1 0x20 DUP3 ADD SWAP1 POP SWAP3 SWAP2 POP POP JUMP JUMPDEST PUSH1 0x0 JUMPDEST DUP4 DUP2 LT ISZERO PUSH2 0x4AA JUMPI DUP1 DUP3 ADD MLOAD DUP2 DUP5 ADD MSTORE PUSH1 0x20 DUP2 ADD SWAP1 POP PUSH2 0x48F JUMP JUMPDEST PUSH1 0x0 DUP5 DUP5 ADD MSTORE POP POP POP POP JUMP JUMPDEST PUSH1 0x0 PUSH2 0x4C1 DUP3 PUSH2 0x470 JUMP JUMPDEST PUSH2 0x4CB DUP2 DUP6 PUSH2 0x47B JUMP JUMPDEST SWAP4 POP PUSH2 0x4DB DUP2 DUP6 PUSH1 0x20 DUP7 ADD PUSH2 0x48C JUMP JUMPDEST PUSH2 0x4E4 DUP2 PUSH2 0x2D8 JUMP JUMPDEST DUP5 ADD SWAP2 POP POP SWAP3 SWAP2 POP POP JUMP JUMPDEST PUSH1 0x0 PUSH1 0x40 DUP3 ADD SWAP1 POP PUSH2 0x504 PUSH1 0x0 DUP4 ADD DUP6 PUSH2 0x237 JUMP JUMPDEST DUP2 DUP2 SUB PUSH1 0x20 DUP4 ADD MSTORE PUSH2 0x516 DUP2 DUP5 PUSH2 0x4B6 JUMP JUMPDEST SWAP1 POP SWAP4 SWAP3 POP POP POP JUMP JUMPDEST PUSH32 0x4E487B7100000000000000000000000000000000000000000000000000000000 PUSH1 0x0 MSTORE PUSH1 0x11 PUSH1 0x4 MSTORE PUSH1 0x24 PUSH1 0x0 REVERT JUMPDEST PUSH1 0x0 PUSH2 0x559 DUP3 PUSH2 0x22D JUMP JUMPDEST SWAP2 POP PUSH2 0x564 DUP4 PUSH2 0x22D JUMP JUMPDEST SWAP3 POP DUP3 DUP3 MUL PUSH2 0x572 DUP2 PUSH2 0x22D JUMP JUMPDEST SWAP2 POP DUP3 DUP3 DIV DUP5 EQ DUP4 ISZERO OR PUSH2 0x589 JUMPI PUSH2 0x588 PUSH2 0x51F JUMP JUMPDEST JUMPDEST POP SWAP3 SWAP2 POP POP JUMP JUMPDEST PUSH32 0x4E487B7100000000000000000000000000000000000000000000000000000000 PUSH1 0x0 MSTORE PUSH1 0x22 PUSH1 0x4 MSTORE PUSH1 0x24 PUSH1 0x0 REVERT JUMPDEST PUSH1 0x0 PUSH1 0x2 DUP3 DIV SWAP1 POP PUSH1 0x1 DUP3 AND DUP1 PUSH2 0x5D7 JUMPI PUSH1 0x7F DUP3 AND SWAP2 POP JUMPDEST PUSH1 0x20 DUP3 LT DUP2 SUB PUSH2 0x5EA JUMPI PUSH2 0x5E9 PUSH2 0x590 JUMP JUMPDEST JUMPDEST POP SWAP2 SWAP1 POP JUMP JUMPDEST PUSH1 0x0 DUP2 SWAP1 POP DUP2 PUSH1 0x0 MSTORE PUSH1 0x20 PUSH1 0x0 KECCAK256 SWAP1 POP SWAP2 SWAP1 POP JUMP JUMPDEST PUSH1 0x0 PUSH1 0x20 PUSH1 0x1F DUP4 ADD DIV SWAP1 POP SWAP2 SWAP1 POP JUMP JUMPDEST PUSH1 0x0 DUP3 DUP3 SHL SWAP1 POP SWAP3 SWAP2 POP POP JUMP JUMPDEST PUSH1 0x0 PUSH1 0x8 DUP4 MUL PUSH2 0x652 PUSH32 0xFFFFFFFFFFFFFFFFFFFFFFFFFFFFFFFFFFFFFFFFFFFFFFFFFFFFFFFFFFFFFFFF DUP3 PUSH2 0x615 JUMP JUMPDEST PUSH2 0x65C DUP7 DUP4 PUSH2 0x615 JUMP JUMPDEST SWAP6 POP DUP1 NOT DUP5 AND SWAP4 POP DUP1 DUP7 AND DUP5 OR SWAP3 POP POP POP SWAP4 SWAP3 POP POP POP JUMP JUMPDEST PUSH1 0x0 DUP2 SWAP1 POP SWAP2 SWAP1 POP JUMP JUMPDEST PUSH1 0x0 PUSH2 0x699 PUSH2 0x694 PUSH2 0x68F DUP5 PUSH2 0x22D JUMP JUMPDEST PUSH2 0x674 JUMP JUMPDEST PUSH2 0x22D JUMP JUMPDEST SWAP1 POP SWAP2 SWAP1 POP JUMP JUMPDEST PUSH1 0x0 DUP2 SWAP1 POP SWAP2 SWAP1 POP JUMP JUMPDEST PUSH2 0x6B3 DUP4 PUSH2 0x67E JUMP JUMPDEST PUSH2 0x6C7 PUSH2 0x6BF DUP3 PUSH2 0x6A0 JUMP JUMPDEST DUP5 DUP5 SLOAD PUSH2 0x622 JUMP JUMPDEST DUP3 SSTORE POP POP POP POP JUMP JUMPDEST PUSH1 0x0 SWAP1 JUMP JUMPDEST PUSH2 0x6DC PUSH2 0x6CF JUMP JUMPDEST PUSH2 0x6E7 DUP2 DUP5 DUP5 PUSH2 0x6AA JUMP JUMPDEST POP POP POP JUMP JUMPDEST JUMPDEST DUP2 DUP2 LT ISZERO PUSH2 0x70B JUMPI PUSH2 0x700 PUSH1 0x0 DUP3 PUSH2 0x6D4 JUMP JUMPDEST PUSH1 0x1 DUP2 ADD SWAP1 POP PUSH2 0x6ED JUMP JUMPDEST POP POP JUMP JUMPDEST PUSH1 0x1F DUP3 GT ISZERO PUSH2 0x750 JUMPI PUSH2 0x721 DUP2 PUSH2 0x5F0 JUMP JUMPDEST PUSH2 0x72A DUP5 PUSH2 0x605 JUMP JUMPDEST DUP2 ADD PUSH1 0x20 DUP6 LT ISZERO PUSH2 0x739 JUMPI DUP2 SWAP1 POP JUMPDEST PUSH2 0x74D PUSH2 0x745 DUP6 PUSH2 0x605 JUMP JUMPDEST DUP4 ADD DUP3 PUSH2 0x6EC JUMP JUMPDEST POP POP JUMPDEST POP POP POP JUMP JUMPDEST PUSH1 0x0 DUP3 DUP3 SHR SWAP1 POP SWAP3 SWAP2 POP POP JUMP JUMPDEST PUSH1 0x0 PUSH2 0x773 PUSH1 0x0 NOT DUP5 PUSH1 0x8 MUL PUSH2 0x755 JUMP JUMPDEST NOT DUP1 DUP4 AND SWAP2 POP POP SWAP3 SWAP2 POP POP JUMP JUMPDEST PUSH1 0x0 PUSH2 0x78C DUP4 DUP4 PUSH2 0x762 JUMP JUMPDEST SWAP2 POP DUP3 PUSH1 0x2 MUL DUP3 OR SWAP1 POP SWAP3 SWAP2 POP POP JUMP JUMPDEST PUSH2 0x7A5 DUP3 PUSH2 0x470 JUMP JUMPDEST PUSH8 0xFFFFFFFFFFFFFFFF DUP2 GT ISZERO PUSH2 0x7BE JUMPI PUSH2 0x7BD PUSH2 0x2E9 JUMP JUMPDEST JUMPDEST PUSH2 0x7C8 DUP3 SLOAD PUSH2 0x5BF JUMP JUMPDEST PUSH2 0x7D3 DUP3 DUP3 DUP6 PUSH2 0x70F JUMP JUMPDEST PUSH1 0x0 PUSH1 0x20 SWAP1 POP PUSH1 0x1F DUP4 GT PUSH1 0x1 DUP2 EQ PUSH2 0x806 JUMPI PUSH1 0x0 DUP5 ISZERO PUSH2 0x7F4 JUMPI DUP3 DUP8 ADD MLOAD SWAP1 POP JUMPDEST PUSH2 0x7FE DUP6 DUP3 PUSH2 0x780 JUMP JUMPDEST DUP7 SSTORE POP PUSH2 0x866 JUMP JUMPDEST PUSH1 0x1F NOT DUP5 AND PUSH2 0x814 DUP7 PUSH2 0x5F0 JUMP JUMPDEST PUSH1 0x0 JUMPDEST DUP3 DUP2 LT ISZERO PUSH2 0x83C JUMPI DUP5 DUP10 ADD MLOAD DUP3 SSTORE PUSH1 0x1 DUP3 ADD SWAP2 POP PUSH1 0x20 DUP6 ADD SWAP5 POP PUSH1 0x20 DUP2 ADD SWAP1 POP PUSH2 0x817 JUMP JUMPDEST DUP7 DUP4 LT ISZERO PUSH2 0x859 JUMPI DUP5 DUP10 ADD MLOAD PUSH2 0x855 PUSH1 0x1F DUP10 AND DUP3 PUSH2 0x762 JUMP JUMPDEST DUP4 SSTORE POP JUMPDEST PUSH1 0x1 PUSH1 0x2 DUP9 MUL ADD DUP9 SSTORE POP POP POP JUMPDEST POP POP POP POP POP POP JUMP INVALID LOG2 PUSH5 0x6970667358 0x22 SLT KECCAK256 0xD0 0xB4 ISZERO DUP3 POP PUSH4 0xFA6D123E DUP7 0xAC 0x5D 0xD2 PUSH21 0x5E6EA19B6E89FA15F0CE78B997BDA56B3664736F6C PUSH4 0x43000813 STOP CALLER "
		},
		"gasEstimates": {
			"creation": {
				"codeDepositCost": "442400",
				"executionCost": "480",
				"totalCost": "442880"
			},
			"external": {
				"addPerson(string,uint256)": "infinite",
				"listOfFriends(uint256)": "infinite",
				"retrieve()": "2415",
				"store(uint256)": "infinite"
			}
		},
		"methodIdentifiers": {
			"addPerson(string,uint256)": "6f760f41",
			"listOfFriends(uint256)": "9b45fc32",
			"retrieve()": "2e64cec1",
			"store(uint256)": "6057361d"
		}
	},
	"abi": [
		{
			"inputs": [
				{
					"internalType": "string",
					"name": "name",
					"type": "string"
				},
				{
					"internalType": "uint256",
					"name": "_favouriteNuumber",
					"type": "uint256"
				}
			],
			"name": "addPerson",
			"outputs": [],
			"stateMutability": "nonpayable",
			"type": "function"
		},
		{
			"inputs": [
				{
					"internalType": "uint256",
					"name": "",
					"type": "uint256"
				}
			],
			"name": "listOfFriends",
			"outputs": [
				{
					"internalType": "uint256",
					"name": "favouriteNumber",
					"type": "uint256"
				},
				{
					"internalType": "string",
					"name": "name",
					"type": "string"
				}
			],
			"stateMutability": "view",
			"type": "function"
		},
		{
			"inputs": [],
			"name": "retrieve",
			"outputs": [
				{
					"internalType": "uint256",
					"name": "",
					"type": "uint256"
				}
			],
			"stateMutability": "view",
			"type": "function"
		},
		{
			"inputs": [
				{
					"internalType": "uint256",
					"name": "_favouriteNumber",
					"type": "uint256"
				}
			],
			"name": "store",
			"outputs": [],
			"stateMutability": "nonpayable",
			"type": "function"
		}
	]
}